:020000041000EA
:1000000000B5324B212058609868022188439860DF
:10001000D860186158612E4B002199600221596106
:100020000121F02299502B49196001219960352056
:1000300000F044F80222904214D00621196600F024
:1000400034F8196E01211966002018661A6600F04E
:100050002CF8196E196E196E052000F02FF8012189
:100060000842F9D1002199601B49196000215960AB
:100070001A491B48016001219960EB211966A021F2
:10008000196600F012F800219960164914480160C1
:100090000121996001BC002800D000471248134993
:1000A000086003C880F30888084703B5996A0420EC
:1000B0000142FBD001200142F8D103BD02B5186610
:1000C0001866FFF7F2FF186E186E02BD00000240BE
:1000D000000000180000070000035F00212200005C
:1000E000F4000018222000A00001001008ED00E03C
:1000F00000000000000000000000000074B24E7A12
:1001000000200420F7010010C3010010C5010010F9
:10011000C1010010C1010010C1010010C101001097
:10012000C1010010C1010010C1010010C701001081
:10013000C1010010C1010010C9010010CB01001065
:10014000CD010010CD010010CD010010CD01001037
:10015000CD010010CD010010CD010010CD01001027
:10016000CD010010CD010010CD010010CD01001017
:10017000CD010010CD010010CD010010CD01001007
:10018000CD010010CD010010CD010010CD010010F7
:10019000CD010010CD010010CD010010CD010010E7
:1001A000CD010010CD010010CD010010CD010010D7
:1001B000CD010010CD010010CD010010CD010010C7
:1001C00000BE00BE00BE00BE00BE00BE00F04BF888
:1001D000103800BEF2EB8871F0870410108804100C
:1001E0003402001090A31AE700202149086006C8D5
:1001F00081F3088810471F48006800282FD10DA4FC
:100200000ECC002902D000F012F8F9E71A491B4A77
:10021000002000E001C19142FCD1194988471949E9
:1002200088471949884700BEFDE701C901C29A42C3
:10023000FBD3704710880410C0000020380F002046
:100240008896041000000420000004208896041002
:1002500000100420001004200000000070470B482C
:1002600000F09AFF0047EFF30580C0B2704700002E
:1002700008ED00E0000000D0380F002018D6002064
:10028000D95700105D030010FD58001057560000AC
:1002900006005250ABB36053B81201100600525022
:1002A000861C0302C8120110060052505422A29D5F
:1002B000D012011005005250DE65F46888960410D3
:1002C000F8B5C0460448054B10B5834203D0044B33
:1002D000002B00D0984710BD380F0020380F0020A9
:1002E0000000000006480749091A8B10C90FC918F9
:1002F00010B5491003D0044B002B00D0984710BD17
:10030000380F0020380F00200000000010B5074C07
:100310002378002B09D1FFF7D5FF054B002B02D026
:10032000044800E000BF0123237010BD40110020ED
:100330000000000050050110054B10B5002B03D044
:100340000449054800E000BFFFF7CCFF10BDC046E0
:10035000000000004411002050050110F0B5DE46F9
:10036000454657464E46E0B591B007F04DFE00F0C9
:100370000DFC051E7CD1444E444930000FF01AFBA1
:100380000321002003F0F0FE0321012003F0ECFE26
:1003900000220121100003F0FFFE012100220800CD
:1003A00003F0FAFE0BAC642004F03CFE3C23402238
:1003B000257280210096200000F064F91F212000A2
:1003C00000F006FA200000F041FA314B05AE9A46E3
:1003D000304B08AD9946304B9846304B9B46200039
:1003E00000F034FA0121002000F0E6FA03A800F042
:1003F00059F8049807F098FB039F5246009001912A
:100400000A21300006F07CFF381C07F08DFB4A46BD
:10041000009001910A21280006F072FF4346200057
:10042000009305220123002100F018FA2000022386
:100430000F220021009600F011FA5B462000009385
:1004400023220123002100F009FA02232D2200219A
:100450002000009500F002FA200000F031FA01219E
:10046000002000F0A9FA9620400004F0DBFDB6E77A
:100470000B4807F0BDFD0120404211B0F0BCBB4667
:10048000B246A946A046F0BDC4060020400D0300B8
:10049000640501106C050110740501108005011040
:1004A00050050110F0B52E4F85B005002D493800DC
:1004B0000FF080FA03210E2003F056FE03210F20D7
:1004C00003F052FE002201210E2003F065FE0022FF
:1004D00001210F2003F060FE0B2200266A441670F3
:1004E000012327210096380003AC03960FF08CFA05
:1004F000642004F097FD2200042327210096380091
:100500000FF0EAFA642004F08DFDA078E378000291
:10051000C018800807F036FA0022134B07F0AFF935
:100520000022124B07F0C5F90022114B07F09DF98C
:1005300007F070FA061C207863780002C01807F0F4
:1005400021FA0022084B07F09AF90022094B07F024
:10055000B0F907F05FFA286028006E6005B0F0BDC2
:10056000CC060020400D030000FFCF4000A06440F7
:100570000000444000005940F0B5DE4657464E4664
:100580004546E0B589B0019312AB059204CB0791C3
:1005900051781B78009200296DD0203B0693137888
:1005A000002204920132924606329346049D069C34
:1005B000AC464C43009A6244121992789146002B43
:1005C00053D00199079C0A00A4466A4362449046AE
:1005D0000D00029245444A1E002403922A00A446BC
:1005E0004D46914606E06246013252B294466D088D
:1005F0009A4238DA52462A42F5D0019C61462200DE
:100600004A430599039F8846904402994744002C29
:10061000E9D02B004546984603782A008B4215D92D
:10062000447894420CD9D40863435C46564614403F
:10063000A6403400C6685B18F65C3443C668F454C0
:10064000974203D0037801328B42E9D801318945C2
:10065000E2D162464546009B01321B7852B2944675
:100660006D089A42C6DB009A5178049A0132D2B2E0
:1006700004928A429AD309B0F0BCBB46B246A9465E
:10068000A046F0BDF0B5DE464E4645465746E0B5BD
:100690008BB01F00149B06009B46D3B273701500ED
:1006A0009846D3085A46C8B2DBB230705843B3708C
:1006B0003061F77072600130894607F06FFAF060C0
:1006C000002800D174E03B4B03AC03934346013B4D
:1006D0002371D32363718023DB01E3808D23237295
:1006E000337A0130F060002B48D114236372324B0F
:1006F0006D006381DA232373A94551DD02236373FF
:10070000813BE3815933FF332374183363742B4BDC
:1007100002AD63822A4B08930023237625336B4472
:100720009A46284B9846284B99460BE0431C03D128
:100730004146264807F05CFC0134544516D07368E6
:10074000F7789B46002322782B706A70390000935B
:100750002A00023358460FF057F9831CE6D1414670
:100760004846013407F044FC5445E8D101200BB061
:10077000F0BCBB46B246A946A046F0BD102363724A
:100780000D4B6D006381DA232373A9450CDCC83B54
:100790006373913BE3815933FF332374B73BB5E770
:1007A00012236373913BACE702236373813BF1E750
:1007B0003061DCE7AED580A8A1C8FFFFDB300000C8
:1007C000A4A6AF208C0501109C050110BC050110EA
:1007D00070B51A4B84B003AD2B8000230E00C17896
:1007E0000093040002332A0040680FF00DF9831CC7
:1007F00019D0431C03D11249124807F0F9FB00231A
:100800006E702B702A000093E178023360680FF05D
:10081000FBF8831C0CD0431C03D10949094807F09D
:10082000E7FB04B070BD0649074807F0E1FBE6E7C7
:100830000349054807F0DCFBF3E7C0460081FFFFF2
:100840008C050110BC0501109C050110030010B5BA
:100850000021C0681A6907F0BBF910BDF0B5574612
:100860004E464546DE46E0B583B00C9D81462C7869
:1008700092461F000E00002C13D0DB0098460F4B51
:100880009B4601357E2C13D85B46310001940093C2
:1008900052463B004846FFF76FFE2C784644002C3A
:1008A000EFD103B0F0BCBB46B246A946A046F0BDAE
:1008B0002C784644002CE4D1F3E7C046DC05011057
:1008C000F0B5CE464746212380B5027887B004AC08
:1008D000511E2370A170002322216370E1702371E7
:1008E00083780600013B6371402A03D120236370A3
:1008F0003F33A3701627224B6F449846214B03AD1C
:10090000994608E0431C03D141461F4807F070FB9D
:100910000134A74213D0002322782B706A70F1783B
:1009200000932A00023370680FF06EF8831CE9D13F
:1009300041464846013407F05BFBA742EBD1402219
:100940000024F368013B1A703369F2680133F178CF
:100950007068013A00940FF057F8831C0AD0431CCA
:1009600003D10A49084807F043FB07B0C0BCB946A9
:10097000B046F0BD0549034807F03AFBF5E7C0462D
:100980008C0501109C050110BC050110CC0501105F
:1009900010B582B068460C0000F02EFA6B460622B5
:1009A000991C200007F01AF90122237893430222B0
:1009B0001343237002B010BD10B50A0001000248B5
:1009C00003F080FB10BDC0464418002070B50F4CEA
:1009D000002120000FF074FD002805D06379012B61
:1009E00006D020000FF09CFD09480FF049FD70BDB6
:1009F000084D2B68002B02D000222A6098476B68B4
:100A0000002BEED000226A609847EAE734180020F5
:100A10002C1800202C2B002010B50CF019FD144BC5
:100A20001A68002A1DD013490B68002B19D0013B0E
:100A30000B60002B15D1104B1A60D0220F4B120601
:100A40001B78126893420DD05A1E934130225B42AC
:100A500013400B4A944680226344920113430222BE
:100A60001A6010BD074B187803F04EFCF9E7C0463A
:100A70003C180020401800202C2B00200AD6002013
:100A80001C4101400ED600200F4B104A10B55A6091
:100A9000D0220F4B12061B78126893420FD05A1EB9
:100AA000934130225B4213400A4A944680226344B9
:100AB0009201134302221A600021074810BD074B20
:100AC000187803F021FCF7E72C2B0020190A0010FE
:100AD0000AD600201C41014050C300000ED6002061
:100AE00070B5D0252D062B6830245A1E93411A4A22
:100AF000022694465B4223406344DB6A1E4200D1D7
:100B000070BD00220221182003F072FB2B685A1ED0
:100B10009341124A5B429446C022234092016344AF
:100B200013431E600E4B1A680E4B1A600E4B2A6858
:100B30001B7893420BD05A1E93415B421C40074BDB
:100B40009C46802364449B011C432660D8E7074BE6
:100B5000187803F0D9FBD3E7004101401C41014064
:100B60003C1800202C2B00200AD600200ED6002096
:100B700010B50400FFF777FB002800D010BD21005E
:100B800001480FF0C5FCF9E72C180020D02370B500
:100B90001B061A68404B84B040481A7004F0FEFDF2
:100BA0003F4803F031F9012200213E4803F06EFE78
:100BB00004F0DAF8060004F023FB002304000D0023
:100BC000394A12196B41994238D835D00121029126
:100BD0000021019135493000009104F0C9F8344CEE
:100BE000206000283FDB8020324D40222900800118
:100BF00003F028FB01220221182003F0F9FA0D204E
:100C0000012103F06FFB09F04FFF002003F026FEE7
:100C1000002817DBFF23284C28492070184003F0D8
:100C200099FB0121207803F05DFB2078FF2103F080
:100C300087FD002004B070BD9042C7D90122524206
:100C4000D317C3E72668002E1DDA002202211820E0
:100C500003F0CEFA80202900800103F015FB164C2A
:100C60002078002802D102204042E3E7002103F06F
:100C700039FB2078114903F089FC207803F0E0FD6E
:100C800000232370EFE704F06FF8310004F03AF925
:100C900001235B422360D8E70AD6002034180020E5
:100CA000441800202C18002050C30000890A0010AE
:100CB000E0050020E10A00100ED60020CD0900104A
:100CC00010B501220221182003F092FA10BDC0468F
:100CD000D02210B50D4B120618600D4B12681B7810
:100CE00093420DD05A1E934130225B421340094A71
:100CF0009446802263449201134302221A6010BD7D
:100D0000054B187803F000FBF9E7C0462C2B0020B8
:100D10000AD600201C4101400ED6002010B5024822
:100D20000FF0DEFB10BDC0463418002010B5144C87
:100D30006379012B03D020000FF0F2FB10BD114BA3
:100D40001A68002AF7D0104A12681A60D0220F4B96
:100D500012061B78126893420DD05A1E934130221E
:100D60005B4213400A4A9446802263449201134333
:100D700002221A60DFE7074B187803F0C5FADAE7BA
:100D8000341800202C2B00203C1800200AD600200C
:100D90001C4101400ED60020F8B5040004F030FAE2
:100DA000FA2206000F00200000230021920006F026
:100DB000A1FE8019794104000D008F4210D80DD09A
:100DC000FFF751FA002804D02000290004F022FA8D
:100DD000F8BD2000290004F0CFF8F9E78642EFD9EA
:100DE00001246442E517EBE710B5024800F0E0F893
:100DF00010BDC0469CD4002010B50822014906F061
:100E0000EDFE10BD9CD4002030B54B1E012900D151
:100E1000A7E0664A11780D112C0030349F2900D9C3
:100E2000A2E00470012B00D1BEE00F211478214014
:100E30000C003034092900DD98E04470022B00D109
:100E4000B2E054782511290030319F2C00D990E070
:100E50008170032B00D1A7E00F2121400C0030341A
:100E6000092900DD87E0C470042B00D19CE0947850
:100E70002511290030319F2C00D97FE00171052B0D
:100E800000D191E00F2121400C003034092900DD10
:100E900076E04471062B00D186E0D4782511290034
:100EA00030319F2C00D96EE08171072B00D17BE09F
:100EB0000F2121400C003034092966DCC471082B55
:100EC00000D171E014792511290030319F2C5FD8B1
:100ED0000172092B68D00F2121400C003034092900
:100EE00058DC44720A2B5FD0547925112900303127
:100EF0009F2C52D881720B2B56D00F2121400C0011
:100F0000303409294BDCC4720C2B4DD09479251157
:100F1000290030319F2C00D9073101730D2B43D0AC
:100F20000F2121400C003034092901DD37310C003C
:100F300044730E2B38D0D1790C11220030329F2906
:100F400000D9073282730F2B2ED00F220A401100D6
:100F50003731092A01DC30321100C173102B23D044
:100F600010300023037030BD07345AE737310C00CE
:100F700063E707316CE737310C0074E707317DE731
:100F800037310C0085E707318EE737310C0095E7E4
:100F900007319DE737310C00A3E70731AAE7373166
:100FA0000C00C4720C2BB1D1C018DAE79CD400201D
:100FB00030B5002589B004000922002101A8009560
:100FC00006F006FE0922002105A8049506F000FEA1
:100FD0004B236A466846137004A90D220FF058FA95
:100FE000152108222000694406F0F8FD09B030BD43
:100FF000EFF3108072B6034A1368002BFCD0BFF3E6
:101000005F8F70472C0100D0BFF35F8F0022024B2F
:101010001A6080F3108870472C0100D070B5EFF390
:10102000108C72B60D4D2B68002BFCD0BFF35F8F78
:101030000724CB08C618C05C01230C40A3401C0049
:101040000440034207D103433370BFF35F8F2C602A
:101050008CF3108870BD100004F052FC2C0100D0FD
:10106000F8B54746CE46884680B5EFF3108C72B689
:10107000214D2C68002CFCD0BFF35F8F9A422CD8F6
:10108000D4080727055D061901241740BC402C42EF
:101090001FD007210127894609E0D408055D0619FC
:1010A0004C4639001440A1400C00294211D00132B5
:1010B0009342F2D201204042BFF35F8F00220E4BD9
:1010C0001A608CF3108800280FDBC0BCB946B0460C
:1010D000F8BD2C4310003470EEE7BFF35F8F0023A0
:1010E0002B608CF31088012040424346002BECD04B
:1010F000089804F005FCC0462C0100D030B5EFF391
:10110000108C72B60A4C2368002BFCD0BFF35F8FA3
:1011100007230122CD0819408A40435D934343557C
:10112000BFF35F8F002323608CF3108830BDC0466F
:101130002C0100D0024B18688007C00F7047C046D2
:1011400000C006400021044B044ABFF35F8F02C376
:101150009342FAD17047C046000100D0800100D010
:10116000044A1078431CDBB2172B00D910231370EC
:101170007047C046E405002000B5054B83B0010070
:10118000009318221F230348FFF76AFF03B000BD36
:10119000BC070110FC170020142310B501001888AB
:1011A00004331B88984710BD162310B5010018881A
:1011B00002331B88984710BDF8B54746CE4680B528
:1011C0000F1E19D01423994604330400002501266C
:1011D00098464B461888434621681B88984701C4A7
:1011E000431E9841013540420640AF42F1D13000E4
:1011F000C0BCB946B046F8BD0126F8E710B50520D9
:1012000004F0FAFC030C64200349584306F0EAF8A2
:101210000338FDD210BDC0469A3B0000F0B54646EB
:10122000D6464F46C0B5664E050082B031006548CF
:1012300009F0EAFA002809D13100634809F0E4FA1C
:10124000002800D1B4E006225F4801E007225D4893
:101250008427FF235D4C3F010021EC512060237265
:10126000E371227109F0B2FA40B2A071002800DAED
:10127000A1E03100206809F0FBFA40B2421D607124
:101280001203C00110433023514AC827024092463E
:1012900001225048BC46016880278B434E49BF025B
:1012A0000B600368100098430860206880230100E9
:1012B0009B0138310B438021490419600621B8464F
:1012C000615691464B005B18DB00C3189C4467468F
:1012D00042463A60CC2294469C4462465746176088
:1012E0001A00C027D032BF0217603C4ADC331A60B4
:1012F0004B461D22009309F07DFB1820217902F056
:1013000033FF1D20217902F02FFF01220021182038
:1013100002F042FF0121182002F056FF0622A256D9
:10132000002053009B182268DB0094462C4A63443B
:10133000D8331A6009F0A8FBE071002009F0A4FB83
:10134000E27943B223727F2A08D80020002B05DB04
:1013500002B0E0BCBA46B146A846F0BD84231B01EA
:10136000EC58002C24D00621615600290CDB052204
:10137000A256531C05D03100206809F0DDFA062181
:101380006156206809F012FA07202056002803DB76
:1013900009F072FBFF23E37108202056002803DBCD
:1013A00009F06AFBFF232372842300221B01EA5009
:1013B00006204042CCE7EC59002CD4D1F8E7C046D7
:1013C000F40701100000305000002050F0170020FA
:1013D000FFFFFF9F78C0014078D0014018771C24A0
:1013E00001E00000F0B557464E464546DE46E0B502
:1013F0008A469046994685B0002900D1A8E084230A
:101400001B01C5588022D02392041B069A61182024
:10141000297902F0A9FE4B46002B00D0A9E0012457
:1014200006212200695605278A40286803689343ED
:1014300003604B005B18DB00C618CC36EF573268F0
:10144000029394467A1C12030392C64AFF01934604
:1014500062465B461A401300039A1A433A433260CD
:101460008022029B5201D033C318134380221206FC
:101470001A601A6080235B041A0009F077FA0622CA
:101480002600AA562968131D9E40330008682600CE
:1014900003430B60130008339E403300086807269F
:1014A00003430B6043469000DB000818013B0361D7
:1014B00053009B18DB00AC4ACB18D8331A604A465D
:1014C0000261AA4A1A601F22687902401A60AE5768
:1014D000A022B440A64BD205D4508022A54BB70120
:1014E000FC1852042368180010401342FAD1A24B92
:1014F000F602994201D08020C002A04B0C001E4091
:1015000043469A08A023DB059C46534667441034A3
:101510003B607C60BA6080223043994E5204304375
:10152000F86001208A600B6803430B608B681342EC
:10153000FCD006210122695628688A40036893433B
:101540000360002318220093013309F053FAE9E005
:101550004B46002B00D101E184231B01C55880229A
:10156000D02392041B069A611820297902F0FCFD11
:10157000CA46012406212200695605278A402868A8
:101580000368934303604B005B18DB00C618CC363E
:10159000EF573268029394467A1D12030392714A00
:1015A000FF01934662465B461A401300039A1A43B2
:1015B0003A4332608022029B5201D033C318134356
:1015C000802212061A601A6080235B041A0009F058
:1015D000CDF906232100EB562E689C460433994032
:1015E0000B0032682100134333606346083399408F
:1015F0000B00326840461343336062464346920014
:10160000DB00B218013B136163465B006344DB00FF
:101610005549F318D83319600E99A027091AC90043
:1016200001391161514AFF051A601F2269790A4088
:101630001A600723EB561A009C404D4B9101FC5059
:1016400014008022A3464B4B5204C818036813426F
:10165000FCD15846082201230290AA5644489340E0
:101660003B5093011800834603930298414B80241A
:101670005B44834664041868070027402042FAD17F
:101680005B463D48DB02864265D08027C024FF02CE
:10169000E4023A48D20203401F43394B02401F4341
:1016A00043469B080293A023DB059B4653465944BF
:1016B0000B6010239A46B244534630004B60029BA5
:1016C00022438B60CF602F4920300A430E9989084E
:1016D000CB1A0399594408604846404448608B60DF
:1016E000CA60012361468B4032681343336007228E
:1016F000254B80219C46AA564904920162441368F6
:101700000B42FCD10822204B80219C46AA5649045A
:101710009201624413680B42FCD1002142464846C4
:1017200006F056FA062169562B684A005218D20074
:101730009B18164AD8331A60D02380221B069204C5
:101740005A61FFF75BFD002005B0F0BCBB46B24616
:10175000A946A046F0BD8024A4029AE70520404295
:10176000F2E7C0467F00FEFF2060000040600000FE
:10177000440400000C00005000002050FD7F00FFDA
:1017800019004000290040001000005003A0000094
:1017900010B5172002F088FDD024802324061B04F6
:1017A000002201216362172002F0F6FC182002F0EB
:1017B0007BFD80235B0463621920A36102F074FD4A
:1017C00080239B046362636110BDC04670B5D02462
:1017D000802524062D04A561142003F023FC6561F7
:1017E000FA2003F01FFC182002F05EFD80235B044A
:1017F000A36270BD002300B585B003930A4BD202EB
:101800001A40082309070A4308490093114302AB11
:1018100049BA042202910021FFF7E4FD002801D11A
:10182000039840BA05B000BD00F8FF0F0400004067
:1018300010B586B0012916D0154BD2021A400823E4
:1018400009070A43134903AC0A4303920093042295
:1018500023000021FFF7C6FD0123002801D19B00D2
:10186000E05806B010BD0A4BD2021A400A4B03AC36
:101870001A430C2303920093042223000021FFF754
:10188000B1FD0028EDD102239B00E058E9E7C046F6
:1018900000F8FF0F040000400800005010B586B0AB
:1018A000012916D0154BD2021A40082309070A4312
:1018B000134903AC0A43039200930422230000213E
:1018C000FFF790FD0123002801D19B00E05806B0EE
:1018D00010BD0A4BD2021A400A4B03AC1A430C2328
:1018E00003920093042223000021FFF77BFD0028D0
:1018F000EDD102239B00E058E9E7C04600F8FF0F56
:10190000020000400600005010B586B0012916D034
:10191000154BD2021A40082309070A43134903ACA6
:101920000A4303920093042223000021FFF75AFD8B
:101930000123002801D19B00E05806B010BD0A4BDE
:10194000D2021A400A4B03AC1A430C2303920093B1
:10195000042223000021FFF745FD0028EDD10223DA
:101960009B00E058E9E7C04600F8FF0F0100004087
:1019700005000050F0B55BBAD6464F464646C0B5A6
:1019800084B003938423614CD202224009070A43A6
:101990005F491B01C4581143D02349BA8022012654
:1019A0001B06920402919A611820217902F0DCFB57
:1019B000062132006156CC278A402068BC46036865
:1019C000544F934303600523E35602AD98464B0002
:1019D0005B18DB00C218944462461268D03391460B
:1019E00042460132120392464A46174052463A4353
:1019F0004746FF013A4367463A608022C3185201C6
:101A00001343802212061A601A6080235B041A00B6
:101A100008F0ACFF06213700615622680B1D9F407D
:101A20003B0010683700034313600B0008339F40EE
:101A30003B0010680727034313603F2388001018FA
:101A400003614B005B18DB003349D318D8331960AE
:101A500000210161314919601F216079014019603D
:101A6000E757A021BE402E4BC905CE50BB019C4676
:101A700080212C4E490466443368180008400B420C
:101A8000FAD1294BFF029A4201D08020C002274B95
:101A900011001F40A023DB05634410311D60596015
:101AA0000221996080213843214F49043843D8608E
:101AB0000120916013680343136093680B42FCD0CC
:101AC00006210122615620688A400368934303601F
:101AD000002318220093013308F08CFF0621615681
:101AE00023684A005218D2009B18124AD8331A6051
:101AF000D02380221B0692045A61FFF77FFB00204F
:101B000004B0E0BCBA46B146A846F0BD00F8FF0FED
:101B1000040000C07F00FEFF206000004060000065
:101B2000440400000C00005000002050FD7F00FF26
:101B30001900400003A00000F0B5D6464F464646C7
:101B4000C0B5694CD20222400C072243674C84B0D6
:101B5000224302AD02926B6001290AD10824644934
:101B6000445064494250644A8350852382681B0173
:101B7000C25084231B01C4588022D02301261B0697
:101B800092049A611820217902F0EEFA06213200BF
:101B90006156CC278A402068BC460368574F934360
:101BA00003600523E35698464B005B18DB00C21820
:101BB000944462461268D033914642460132120381
:101BC00092464A46174052463A434746FF013A4337
:101BD00067463A608022C3185201134380221206DE
:101BE0001A601A6080235B041A0008F0BFFE062109
:101BF0003700615622680B1D9F403B00106837007C
:101C0000034313600B0008339F403B001068072715
:101C1000034313603F238800101803614B005B18D7
:101C2000DB003749D318D8331960002101613549E9
:101C300019601F21607901401960E757A021BE405B
:101C4000314BC905CE50BB019C4680212F4E490423
:101C500066443368180008400B42FAD12C4BFF024F
:101C60009A4201D08020C0022A4B11001F40A023BD
:101C7000DB05634410311D605960022199608021A9
:101C80003843254F49043843D860012091601368D8
:101C90000343136093680B42FCD006210122615676
:101CA00020688A400368934303600023182200934E
:101CB000013308F09FFE0621615623684A0052183E
:101CC000D2009B18154AD8331A60D02380221B06F5
:101CD00092045A61FFF792FA002004B0E0BCBA46C1
:101CE000B146A846F0BDC04600F8FF0F040000C092
:101CF0004C08000044080000480800007F00FEFF78
:101D00002060000040600000440400000C0000500F
:101D100000002050FD7F00FF1900400003A00000DC
:101D2000F0B5D6464F464646C0B5694CD202224071
:101D30000C072243674C84B0224302AD02926B60D1
:101D400001290AD108246449445064494250644A34
:101D50008350852382681B01C25084231B01C45811
:101D60008022D02301261B0692049A611820217933
:101D700002F0FAF9062132006156CC278A40206829
:101D8000BC460368574F934303600523E3569846C8
:101D90004B005B18DB00C218944462461268D033D3
:101DA000914642460132120392464A461740524635
:101DB0003A434746FF013A4367463A608022C318D8
:101DC00052011343802212061A601A6080235B04BA
:101DD0001A0008F0CBFD06213700615622680B1D62
:101DE0009F403B0010683700034313600B0008332B
:101DF0009F403B0010680727034313603F23880080
:101E0000101803614B005B18DB003749D318D83337
:101E1000196000210161354919601F216079014075
:101E20001960E757A021BE40314BC905CE50BB0118
:101E30009C4680212F4E49046644336818000840B0
:101E40000B42FAD12C4BFF029A4201D08020C002F3
:101E50002A4B11001F40A023DB05634410311D6095
:101E600059600221996080213843254F4904384345
:101E7000D8600120916013680343136093680B429C
:101E8000FCD006210122615620688A4003689343F2
:101E90000360002318220093013308F0ABFD0621F4
:101EA000615623684A005218D2009B18154AD8334D
:101EB0001A60D02380221B0692045A61FFF79EF914
:101EC000002004B0E0BCBA46B146A846F0BDC0460A
:101ED00000F8FF0F020000C04C080000440800009A
:101EE000480800007F00FEFF206000004060000006
:101EF000440400000C00005000002050FD7F00FF53
:101F00001900400003A00000F0B5D6464F464646F3
:101F1000C0B5694CD20222400C072243674C84B002
:101F2000224302AD02926B6001290AD10824644960
:101F3000445064494250644A8350852382681B019F
:101F4000C25084231B01C4588022D02301261B06C3
:101F500092049A611820217902F006F906213200D4
:101F60006156CC278A402068BC460368574F93438C
:101F700003600523E35698464B005B18DB00C2184C
:101F8000944462461268D0339146424601321203AD
:101F900092464A46174052463A434746FF013A4363
:101FA00067463A608022C31852011343802212060A
:101FB0001A601A6080235B041A0008F0D7FC06211F
:101FC0003700615622680B1D9F403B0010683700A8
:101FD000034313600B0008339F403B001068072742
:101FE000034313603F238800101803614B005B1804
:101FF000DB003749D318D833196000210161354916
:1020000019601F21607901401960E757A021BE4087
:10201000314BC905CE50BB019C4680212F4E49044F
:1020200066443368180008400B42FAD12C4BFF027B
:102030009A4201D08020C0022A4B11001F40A023E9
:10204000DB05634410311D605960022199608021D5
:102050003843254F49043843D86001209160136804
:102060000343136093680B42FCD0062101226156A2
:1020700020688A400368934303600023182200937A
:10208000013308F0B7FC0621615623684A00521854
:10209000D2009B18154AD8331A60D02380221B0621
:1020A00092045A61FFF7AAF8002004B0E0BCBA46D7
:1020B000B146A846F0BDC04600F8FF0F010000C0C1
:1020C0004C08000044080000480800007F00FEFFA4
:1020D0002060000040600000440400000C0000503C
:1020E00000002050FD7F00FF1900400003A0000009
:1020F000F0B5C64600B504001D0082B001292ED0FF
:102100001F0018230120984600261A4BD2021A40BD
:1021100009073A430A4380210430C90580000A4375
:102120002018426003224346E91C91430431891977
:10213000009120000021E3180132FFF753F9061E39
:1021400013D12100089B1C31994203D02A001800AA
:1021500005F044FD300002B080BCB846F0BD1F1D44
:102160001423002098460426CFE70100024805F01A
:102170003FFFEFE700F8FF0FD8070110F0B54E461C
:102180004546DE46574691469846DA1C0323E0B59D
:102190009A4389B005000E000392022924D028003A
:1021A000129B1C3098423FD01900434636071E430D
:1021B0004B46244ADF0217403E43C0273F063E43BA
:1021C0004246AE6105F00AFD29000023039A28006B
:1021D000043218310093FFF705F909B0F0BCBB4693
:1021E000B246A946A046F0BD174B20279B460823C0
:1021F000164C9A4601E0013C10D35B4605935346CA
:10220000042200930021280005ABFFF7EBF800281B
:1022100000D106980742EED0002CC0D10C4805F042
:1022200045FE06204042D8E74B46DF024346054ABA
:10223000360717401E433E43C0273F063E43AE616C
:10224000C2E7C04600F8FF0F04400040E70300006B
:10225000F4090110836870B5CC0B0500E403A342B8
:102260000BD063401A0E19D1FF22120413420CD175
:10227000FF221202134201D1AC6070BD012128007F
:102280000A4A230AFFF740FEF6E7230C0121280043
:10229000074AFFF739FEAB686340E9E7230E0121E7
:1022A000044AFFF731FEAB686340DDE70A00010036
:1022B0000B0001000C000100F0B5C6460330830896
:1022C0009C4600B58E1E002B1DD00B0033435B07D0
:1022D00054D16346013B0A2B50D9C3089846424665
:1022E00030000B00D2008F1830CB30C09F42FBD1A2
:1022F0004346B4185F008A18BC4504D05388108840
:102300001B040343236008000B888A1D5BBA73809B
:102310008B1C1B680A301BBA7360126812BAB26059
:10232000006800BAF060452B03D0300080BCB8468E
:10233000F0BD082AF9D10B000A000C00B232AE330E
:102340001B8810682E3425691A18AA4222D83A31FF
:10235000C918081881424AD20027002504E0DD2A66
:102360001CD0C91888422CD94B780233CA18904225
:10237000F7D30A78302AF2D10D00F2E76346320033
:1023800098003018938854881B04234308C2824263
:10239000F8D1B8E701235B42B360C6E78A1C9046D8
:1023A0008A78002ADDD142465278502AD9D1424655
:1023B0009278F22AD5D14246D278012AD1D10F00A3
:1023C000CFE7002D10D006230422002F0AD0A28BC5
:1023D000D20601D5012213438422B15CB1520432EA
:1023E000B354A2E71300F2E702230022EDE7002333
:1023F000EDE7C046F8B5CE4647460500894680B5AC
:10240000002932D001230121204AFFF77DFD01235D
:10241000012128001D4AFFF777FD03230327984673
:10242000012640240BE00120FEF7B6FC013C3300FE
:1024300001212800154AFFF767FD002C10D001216B
:102440002800124AFFF760FA0028ECDB3B0003404B
:102450004345E8D1FF28E6D0C0BCB946B046F8BD38
:1024600049460B4805F0C4FDF6E700230121074A61
:10247000FFF74AFD002301212800044AFFF744FD2D
:102480000023012798460026CBE7C0461F00010025
:1024900008080110F0B5D6464F464646C0B5C37C85
:1024A00005000F00924682B0002B04D1006801F0B5
:1024B000E1FC002865D0280001F0E2FCAB7C002B99
:1024C00005D101212800FFF795FF0123AB74EB7CB8
:1024D000002B64D0FA24A40002E0013C002C50D070
:1024E000082200212800FFF7A3F9431CF5D0C305FB
:1024F00045D5C02203035B0D591ED200914200D383
:10250000B7E0820700D5B4E02C001C340022022181
:1025100028000094FFF7ECFD002828D1AB8BEA8B54
:10252000002B2AD00121E97466498C4619005140DC
:10253000614500D0A4E0D24392B2934200D0A6E01D
:102540000B2B00D8A9E02422AA5CAA732122A95C43
:10255000123A0A40022A17D90C2B00D1A9E0012A0D
:102560005BD0022A36D0002A47D00B20404202B06E
:10257000E0BCBA46B146A846F0BD002AD2D100233D
:10258000EB7401204042F2E72521695C8C466646E7
:10259000697B711AC9B21429DED86E73DCE7042294
:1025A00000212800FFF77AF983B29846464B0004D1
:1025B00099461B88040C434502D0862323424DD103
:1025C0004346002B4FD14B4642461A80A30600D506
:1025D00080E7D6E7102B69D92322A95C0220611875
:1025E000CA78920004328A18141B1C1B8B78DB07F4
:1025F0001C4353463C601A60B9E71B2B5FD923325A
:10260000AA5C2D8AA21851898D424CD11032141B1C
:102610001C1B53463C601A60A9E7102B4CD923229F
:10262000AA5CA218D178890004315218117B141BBE
:102630001B1B882934D1517B6C2931D1D17C0029D5
:1026400028D1117D102925D1517D182922D1183B7F
:102650003B605346183201201A6088E721001B486E
:1026600005F0C6FCACE7042200212800FFF758FB68
:10267000A9E7012301212800154AFFF745FC7EE761
:102680001900144805F0B4FC012040426FE7022015
:1026900040426CE70A20404269E70320404266E777
:1026A0000920404263E70620404260E7072040429D
:1026B0005DE7042040425AE70820404257E70520E2
:1026C000404254E7FFFF000002D600202C08011012
:1026D0000D00010058080110F0B5DE4657464E4681
:1026E00045460400E0B585B09A468946934601F018
:1026F000C7FBA37C002B05D101212000FFF77AFE48
:102700000123A374A37B002B24D02C4E2C4FB36A3F
:1027100098460EE0A17B002903D1207B637B834296
:102720001CD14346ED1ABD423FD8FA208000FEF787
:102730001FFA200003AA02A9B56AFFF7ABFE012821
:10274000E8D103990298FFF7B7FD0100200001F0DE
:102750009DFBDFE7207B637B8342D6D05B465146FF
:102760000C339AB20A80D24308714A8052464946D5
:102770005171002251468A71494602394D426941E0
:10278000554649000C310130E9712A816A810221E4
:102790002073002220000095FFF7F0FC05B0F0BC8C
:1027A000BB46B246A946A046F0BD637B227B0548E6
:1027B00005F01EFC01204042F0E7C0460040054005
:1027C00040420F0084080110F0B5454657464E467A
:1027D000DE4692461A0098468023E0B51C3205007A
:1027E000894683B01B019A421ED8524682624246F5
:1027F0001204038A120CC2620D9A01339BB21203B7
:1028000003820A431B0413430363002342464363CA
:102810000C99383005F0E2F92B00424600212800DF
:102820001C331032FFF758FF274E284AB76AB36AA5
:10283000DB1B93422ED8264B9B4610E0022820D06B
:10284000002803DB0100584605F0D2FBFA20800087
:10285000FEF78EF9B36A1D4ADB1B93421AD869460C
:10286000280001AAFFF716FE041E23D00128E5D197
:1028700001990098FFF720FD0100280001F006FBF8
:10288000E4E70099019B4A0028685208C90F01F04B
:1028900011FADBE743465246494601240D4805F04C
:1028A000A7FB6442200003B0F0BCBB46B246A94679
:1028B000A046F0BD009A424500D9424601990C98C5
:1028C0000DF03EFEEEE7C046004005403F420F00DF
:1028D000A8080110D4080110F0B5454657464E46E9
:1028E000DE4692461A0098468023E0B51C32050069
:1028F000894683B01B019A421BD85246038A8262E2
:1029000001339BB2038242461B040B430363002343
:102910001204120CC262436342460C99383005F02F
:102920005DF92B004246002128001C331032FFF7CE
:10293000D3FE274E274AB76AB36ADB1B93422ED8D1
:10294000254B9B4610E0022820D0002803DB010025
:10295000584605F04DFBFA208000FEF709F9B36AEE
:102960001C4ADB1B93421AD86946280001AAFFF7CC
:1029700091FD041E23D00128E5D101990098FFF7AD
:102980009BFC0100280001F081FAE4E70099019B1B
:102990004A0028685208C90F01F08CF9DBE743466A
:1029A0005246494601240D4805F022FB64422000AE
:1029B00003B0F0BCBB46B246A946A046F0BD009AA3
:1029C000424500D9424601990C980DF0B9FDEEE759
:1029D000004005403F420F00A8080110D408011034
:1029E000F8B5CE46474604000D0080B5012900D158
:1029F000D4E1D04B90279846FF01C02641462000E5
:102A0000FFF728FC3A0001212000FEF77DFFA368B4
:102A10007605B34210D073401A0E00D0DBE0FF22DF
:102A20001204134200D0E3E0FF221202134200D04E
:102A3000EEE0C0235B05A36041462000FFF70AFCDF
:102A40003A0001212000FEF75FFFC022A368520573
:102A500006009146934210D053401A0E00D093E1E5
:102A6000FF221204134200D082E1FF22120213421D
:102A700000D075E1C0235B05A360F30700D495E1A6
:102A8000012D00D18FE1AC4DAC4E31002000FFF79D
:102A9000E1FB03232A0001212000FFF735FAC022C1
:102AA000A36852059146934210D053401A0E00D0AD
:102AB0004CE1FF221204134200D02EE1FF22120249
:102AC000134200D021E1C0235B05A3603100200048
:102AD000FFF7C0FB2A0001212000FEF715FFC022EE
:102AE000A36852059146934210D053401A0E00D06D
:102AF00001E1FF221204134200D0F0E0FF22120293
:102B0000134200D0E3E0C0235B05A36041462000F0
:102B1000FFF7A0FB3A00C027002301212000FFF7A8
:102B2000F3F9A3687F05BB4210D07B401A0E00D09A
:102B3000C4E0FF221204134200D0B3E0FF221202CD
:102B4000134200D0A6E0C0235B05A360C02701208C
:102B5000FEF722F931002000FFF77CFB01232A0059
:102B600001212000FFF7D0F9A3687F05BB420FD0F9
:102B70007B401A0E00D084E0FF221204134200D0E2
:102B800073E0FF221202134267D1C0235B05A360EA
:102B900031002000FFF75EFB2A00C0250121200044
:102BA000FEF7B2FEA3686D05AB420DD06B401A0E66
:102BB0004AD1FF22120413423AD1FF2212021342D9
:102BC0002ED1C0235B05A3600120FEF7E5F8C0BC51
:102BD000B946B046F8BD1823594A01212000FFF735
:102BE00093F9FF22A36812047340134200D11BE73C
:102BF000C023544A5B0101212000FFF785F9C0235F
:102C0000A2685B055340FF221202134200D110E775
:102C1000C023012120004C4A5B03FFF775F908E748
:102C2000C02301212000484A5B03FFF76DF9C8E784
:102C3000C023444A5B0101212000FFF765F9C0234E
:102C4000A2685B055340B8E71823012120003C4AE5
:102C5000FFF75AF9A3686B40ABE7C02301212000BE
:102C6000394A5B03FFF750F98FE7C023354A5B0110
:102C700001212000FFF748F9C023A2685B055340FB
:102C80007FE71823012120002D4AFFF73DF9A368B3
:102C90007B4071E7C023012120002B4A5B03FFF733
:102CA00033F950E7C023274A5B0101212000FFF7D9
:102CB0002BF9C023A2685B0553403FE7182301218D
:102CC00020001F4AFFF720F9A3687B4031E7C023AB
:102CD000012120001C4A5B03FFF716F913E7C0230C
:102CE000184A5B0101212000FFF70EF9C023A268FA
:102CF0005B05534002E71823114A01212000FFF72A
:102D000003F94B46A2685340F3E6C023012120009B
:102D10000D4A5B03FFF7F8F8D5E6C023094A5B01CB
:102D200001212000FFF7F0F8C023A2685B055340A3
:102D3000C4E6C046004810180844000008441018B3
:102D40000C0001000B0001000A0001001823194AC1
:102D500001212000FFF7D8F84B46A2685340A8E6AF
:102D6000C02301212000144A5B03FFF7CDF881E660
:102D7000C023124A5B0101212000FFF7C5F8C023E0
:102D8000A2685B05534070E618230A4A012120001F
:102D9000FFF7BAF84B46A268534061E6E027084BBC
:102DA000BF01984629E6074D074E6EE6074805F035
:102DB0007DF865E60C0001000A0001000B0001002F
:102DC00000381018083400000834101800090110E9
:102DD00080225200828184220023120101608360DC
:102DE000837303618350704730B50400174D83B07F
:102DF0006946200001AAFFF74DFB0100431C10D0DB
:102E0000031DF5D0012817D002280CD0280005F0AA
:102E1000EFF86946200001AAFFF73CFB0100431CC4
:102E2000EED103B030BD0099019B4A0020685208E2
:102E3000C90F00F03FFFDBE701990098FFF73CFA6C
:102E40000100200001F022F8D2E7C0461C09011061
:102E500030B50224150083B04A0849002140069C81
:102E6000009301942B00FFF7AFFC03B030BDC046C8
:102E700010B50400002909D0837C002B00D110BDBF
:102E8000002300218374FFF7B5FAF8E700F0F8FF9C
:102E9000A37C002BF3D101212000FFF7ABFA012323
:102EA000A374ECE7F0B54E46DE4657464546E0B51E
:102EB000BE4B87B09B6A040043608946FEF7AEF9BB
:102EC000002812D1FEF764FC0A25FEF77FFCB84EFD
:102ED000142200212000FEF78DFCB04213D0012007
:102EE000013DFDF759FF002DF2D1B24804F0DEFF9D
:102EF00006235B429846404607B0F0BCBB46B2464C
:102F0000A946A046F0BD002200212000AA4BFEF7F2
:102F100031FD0028E9D1002200212000FEF788FCC5
:102F200004231D2200212000FEF7EEFF0028DCD143
:102F30009923042200212000FEF7E6FF0028D4D1C7
:102F4000BE23062200212000FEF7EAFE8046031E73
:102F5000CBD101212000994A0833FEF7D5FF0A257D
:102F6000402601212000954AFEF7CEFC06420CD1F6
:102F70000120013DFDF710FF002DF2D1904804F033
:102F800095FF06235B429846B5E700238B4A012153
:102F90002000FEF7B9FF20008A49FFF75BF9E02225
:102FA000C025012120009201FEF7AEFCA3686D054B
:102FB000AB4213D06B401A0E01D000F017FDFF2278
:102FC0001204134201D000F004FDFF22120213424A
:102FD00001D000F0F5FCC0235B05A3602000794917
:102FE000FFF738F9E022012120009201FEF78CFC66
:102FF000C026A36805007605B34213D073401A0EAD
:1030000001D000F0D3FCFF221204134201D000F0E3
:10301000C0FCFF221202134201D000F0B1FCC02319
:103020005B05A360EB0701D400F077FD2000664943
:10303000FFF710F99022C02501212000D201FEF7F0
:1030400063FCA3686D05AB4213D06B401A0E01D030
:1030500000F08CFCFF221204134201D000F079FC36
:10306000FF221202134201D000F06AFCC0235B056C
:10307000A36020005449FFF7EDF8902201212000C1
:10308000D201FEF741FCC026A36805007605B342D5
:1030900013D073401A0E01D000F048FCFF22120436
:1030A000134201D000F035FCFF221202134201D07E
:1030B00000F026FCC0235B05A360EB0701D400F001
:1030C00036FDC02502212000FFF78AFCA3686D05AC
:1030D000AB4212D06B401A0E01D000F007FCFF2269
:1030E0001204134201D000F0F4FBFF22120213423B
:1030F00000D0E5E3C0235B05A360C02503230121C5
:103100002000324AFEF718FDA3686D05AB4210D0CF
:103110006B401A0E00D0CAE3FF221204134200D003
:10312000B9E3FF221202134200D0ACE3C0235B05D7
:10313000A360C025002301212000254AFEF7FCFCE6
:10314000A3686D05AB4210D06B401A0E00D091E31E
:10315000FF221204134200D080E3FF221202134226
:1031600000D056E3C0235B05A3601A4B1A499B4667
:103170001A4B1B4A59444E785B449A5C36021643FC
:10318000FA225200964201DB00F0CCFC154A9B5C0F
:10319000002B01D000F0C6FC502E01DC00F0C2FC78
:1031A000114B124F50259A465F4426E000400540DF
:1031B000ADBEEDFE40090110B30402000E00010097
:1031C000A8090110003810180048101810C000009D
:1031D00044C0000018180110AC6B03009E68030087
:1031E0000E0300000D03000060090110AB6B03002B
:1031F0000135AE4201DC00F095FC09225146781BF6
:103200000CF0D2FF0028F3D140235B425B4400273F
:103210009A463D00A368EE0B4037F6039E420ED05F
:1032200073401A0E00D026E2FF221204134200D08F
:103230002EE2FF221202134200D015E2A66053468E
:103240006A04DB190093012140232000520CFEF791
:1032500095FF002803D1DB239B029F42D9D1C023D5
:103260009B0000269A46794F794D0DE0FEF7F2FF5C
:103270006A04002301212000520C0097FEF77EFF14
:10328000002814D1403540374036290020005645EB
:10329000ECD8FEF7DFFF6A04402301212000520C26
:1032A0000097FEF76BFF002801D15645EAD1F025C3
:1032B000A368ED02AB4210D06B401A0E00D09FE223
:1032C000FF221204134200D08FE2FF2212021342A7
:1032D00000D082E2F023DB02A360C0255D4B012118
:1032E00020005D4AFEF728FCA3686D05AB4210D0B4
:1032F0006B401A0E00D067E2FF221204134200D086
:1033000056E2FF221202134200D049E2C0235B05BD
:10331000A36001212000FFF763FB20004F49FEF767
:1033200099FF012120004E4AFEF7EEFAC026A3685D
:1033300005007605B34210D073401A0E00D026E285
:10334000FF221204134200D015E2FF2212021342A0
:1033500000D008E2C0235B05A360032028400128B9
:1033600002D0404804F0A2FD20003F49FEF772FF62
:10337000E022012120009201FEF7C6FAC026A368D0
:1033800005007605B34210D073401A0E00D0E1E17B
:10339000FF221204134200D0D0E1FF221202134296
:1033A00000D0C3E1C0235B05A360EB0700D5B9E102
:1033B000FA258026AD0006E00120013DFDF7ECFC7A
:1033C000002D00D16AE301212000284AFEF79CFA73
:1033D0000642F1D0C025A3686D05AB4210D06B400A
:1033E0001A0E00D051E3FF221204134200D040E332
:1033F000FF221202134200D033E3C0235B05A36017
:10340000C025F02301212000194AFEF795FBA3688F
:103410006D05AB4210D06B401A0E00D018E3FF22AE
:103420001204134200D007E3FF221202134200D01D
:10343000FAE2C0235B05A360FA25202301212000C6
:103440000C4AFEF761FD2026AD001CE0BC0A01100D
:10345000FCFC0700C0003FFFFCFF00000834101810
:103460000834000094090110003810180E00010003
:1034700024A00000080001000120013DFDF78CFCA4
:10348000002D00D112E3082200212000FEF7D0F920
:103490000642F1D00121E34A2000FEF735FAC3B21B
:1034A000022001210343DF4A2000FEF72DFD0823FF
:1034B000F02200212000FEF727FD02230121DA4A35
:1034C0002000FEF721FD01212000D84AFEF71CFA5A
:1034D000C30700D49FE20F230121D54A2000FEF745
:1034E00013FD00230121D24A2000FEF70DFD01212A
:1034F000CF4A2000FEF708FA042200212000FEF740
:10350000CDF9C30700D57FE2C025A3686D05AB42A6
:1035100010D06B401A0E00D0FBE0FF2212041342C1
:1035200000D0EAE0FF221202134200D0DDE0C02307
:103530005B05A360C02501212000BE4AFEF778F993
:10354000A3686D05AB4210D06B401A0E00D0C3E0EB
:10355000FF221204134200D0B2E0FF2212021342F3
:1035600000D0A5E0C0235B05A360200000F088FC2C
:10357000A37C002B00D194E0AF4F250039003835F3
:1035800008220831280004F029FBAC4BF622DB218D
:10359000236420000023920089026264A3645944DA
:1035A0004C3004F01BFBFC2308229B000221FF325D
:1035B00020000095FFF790F93900132214312800FC
:1035C00004F00CFB832213230021200000955200FD
:1035D000FFF782F9A36B002B00D011E20B22984970
:1035E000280004F0FBFA002643230822E6540133A6
:1035F000E6540133E65401330221E654FF32373BEF
:10360000200001960095FFF7DFF806228D4928007B
:1036100004F0E4FA3E230122E25408220133E65486
:103620000133E6540133E6540221373B2000019672
:103630000095FF32FFF7C8F84B46002B00D13DE262
:1036400020004946062246300CF07AFF0E22280060
:103650007D4904F0C3FA08221423022120000095BA
:10366000FF32FFF739F946E401212000774A330A97
:10367000FEF74AFCE2E50023754A01212000FEF72F
:1036800043FCFF22A36812047340134200D1D0E52B
:10369000330C012120006F4AFEF736FCA36873400B
:1036A000C7E501212000FEF7A5FE0123A37463E70F
:1036B000C02301212000654A5B03FEF725FC51E78A
:1036C000C023644A5B0101212000FEF71DFCC023DA
:1036D000A2685B05534040E71823012120005C4AA3
:1036E000FEF712FCA3686B4032E7C02301212000E3
:1036F000564A5B03FEF708FC19E7C023554A5B01F5
:1037000001212000FEF700FCC023A2685B055340A6
:1037100008E71823012120004D4AFEF7F5FBA368B6
:103720006B40FAE64C4804F0C1FB41E6C02301219E
:103730002000464A5B03FEF7E7FB33E6C023454A19
:103740005B0101212000FEF7DFFBC023A2685B05BF
:10375000534022E61823012120003D4AFEF7D4FB06
:10376000A368734014E6C02301212000374A5B039D
:10377000FEF7CAFBEEE5C023364A5B0101212000BB
:10378000FEF7C2FBC023A2685B055340DDE51823AA
:10379000012120002E4AFEF7B7FBA3687340CFE556
:1037A000C02301212000294A5B03FEF7ADFBADE5F4
:1037B000C023284A5B0101212000FEF7A5FBC0239E
:1037C000A2685B0553409CE5182301212000204A94
:1037D000FEF79AFBA3686B408EE5F02301212000E1
:1037E0001A4ADB00FEF790FB74E50723194A012112
:1037F0002000FEF789FBF023A268DB02534064E55A
:10380000002301212000124AFEF77EFBA3686B40D3
:1038100056E5C023012120000C4A5B03FEF774FB30
:10382000A0E4C0461E0001000E0001001F000100C0
:103830000F00010008850000480A01100610020070
:103840001C0A0110280A0110300A01100A000100A8
:103850000C0001000B00010094090110C023B64ABE
:103860005B0101212000FEF74FFBC023A2685B052E
:10387000534072E4182301212000B04AFEF744FBB4
:10388000A3686B4064E4C02301212000AC4A5B03C1
:10389000FEF73AFB4AE4C023A74A5B01012120005E
:1038A000FEF732FBC023A2685B05534039E41823BE
:1038B00001212000A14AFEF727FBA3686B402BE4FF
:1038C000C023012120009E4A5B03FEF71DFBFFF78A
:1038D00011FCC023984A5B0101212000FEF714FB74
:1038E000C023A2685B055340FFF7FFFB18230121AB
:1038F0002000924AFEF708FBA3686B40FFF7EFFB3E
:10390000C023012120008E4A5B03FEF7FDFAFFF77A
:10391000D1FBC023884A5B0101212000FEF7F4FAA5
:10392000C023A2685B055340FFF7BEFB18230121AB
:103930002000824AFEF7E8FAA3687340FFF7AEFB67
:10394000C023012120007E4A5B03FEF7DDFAFFF76A
:103950008DFBC023784A5B0101212000FEF7D4FAD9
:10396000C023A2685B055340FFF77AFB18230121AF
:103970002000724AFEF7C8FAA3686B40FFF76AFBA3
:10398000C023012120006E4A5B03FEF7BDFAFFF75A
:1039900046FBC023684A5B0101212000FEF7B4FA10
:1039A000C023A2685B055340FFF733FB18230121B6
:1039B0002000624AFEF7A8FAA3687340FFF723FBD2
:1039C000C023012120005E4A5B03FEF79DFAFFF74A
:1039D00002FBC023584A5B0101212000FEF794FA44
:1039E000C023A2685B055340FFF7EFFA18230121BB
:1039F0002000524AFEF788FAA3686B40FFF7DFFA0F
:103A0000504804F0F5FAE9E583B2042200212000D1
:103A1000FEF786F978E5C3B20120012103434A4A43
:103A20002000FEF771FA56E5C02301212000444A28
:103A30005B03FEF769FAFCE4C0233F4A5B01012106
:103A40002000FEF761FAC023A2685B055340EBE457
:103A5000182301212000394AFEF756FAA3686B406B
:103A6000DDE4C02301212000354A5B03FEF74CFA58
:103A7000C3E4C023304A5B0101212000FEF744FA71
:103A8000C023A2685B055340B2E418230121200043
:103A90002A4AFEF739FAA3686B40A4E42B4804F0E5
:103AA00005FA06235B429846FFF725FA284804F0FA
:103AB000FDF906235B429846FFF71DFA6A46390076
:103AC000BB6A30310493BB8D28009382142204F02A
:103AD00085F8832214230021200000955200FEF770
:103AE000FBFE002806D0002002A9FCF751FF02AB24
:103AF0009946A5E50622290002A804F06FF8029B6A
:103B0000049A934203D000239846FFF7F4F96B46DA
:103B10009A899B8A9A42F6D1E5E70E4804F0C6F9E5
:103B2000FFF784FA0C4804F0C1F9FFF798FB094845
:103B300004F0BCF9FFF7C5FA0B0001000C0001000E
:103B40000A000100040A01101F000100D40901103D
:103B5000EC090110000901106C09011070B5060094
:103B60000D000E493836040082B014223031300086
:103B700004F034F883222000142300210096520020
:103B8000FEF7AAFE041E02D0200002B070BD06227D
:103B90003100280004F022F8F6E7C046480A011078
:103BA0003823042200B5C254002335328354013235
:103BB000835401328354030083B0383300930221CD
:103BC00004236A32FEF788FE03B000BD00B5054B42
:103BD00083B0C31800931A2224230221FEF77CFE2F
:103BE00003B000BD1C080000F0B5040083B002293A
:103BF0002BD801238B40002A24D10027DDB22600D8
:103C0000383608221249300003F0E8FF40234122F1
:103C1000E5540023A3540132A3540132A3540132CA
:103C2000A7540132A3540132A3540132A3540822F1
:103C30000221200000961033FF32FEF74DFE0020D7
:103C400003B0F0BDDFB23D00D9E701204042F7E705
:103C5000400A011010B5006800F00CF90138434229
:103C60005841C0B210BDC046104B70B59C468C0187
:103C700064440419002914D00D4B1B68002B06D096
:103C8000002539269C4203D01B68002BFAD170BD59
:103C9000200007F049FC6560A5552368002BF1D191
:103CA000F5E720000BF052F8E6E7C046D408000024
:103CB000B4C40020F8B5CE46474699468D01144B52
:103CC00080B54719FB181B7804005B0703D4C0BC00
:103CD000B946B046F8BD96B2C1223100002052006C
:103CE00007F0CEFC80460028F1D04946320007F0AC
:103CF00027FF084B4046E918074B61189C4667446C
:103D00003B6898470028E2D0404607F0F5FDDEE723
:103D10000D090000D4080000E4080000044B10B5B1
:103D20009C4689016144401807F048FC10BDC0461C
:103D3000D4080000044B10B59C468901614440182A
:103D400007F05EFC10BDC046D408000010B5284B3B
:103D500082B01B68002B17D0264C2000FFF77AFF9B
:103D600000283DD1244BE25C002A2CD1234BE25C9D
:103D7000002A1ED1224BE25C002A0CD1214B1B6889
:103D8000002B03D0FCF79CFF02B010BD01212000E6
:103D9000FFF76EF8F6E700222000E254FFF716FF67
:103DA000862301221B01E250164B1B68002BE9D130
:103DB000ECE700222000E254FFF7F2FE104BE25C39
:103DC000002ADBD0E7E700226921E254200000232B
:103DD0000092FFF73DF8094BE25C002ACAD0E8E701
:103DE0002000FFF701F8044BE25C002ABED0EAE7AE
:103DF0003C180020441800206D0800006F080000E7
:103E00006E0800004018002070B58023D025802661
:103E100004002D065B04AB6236040022002118204A
:103E200000F0BAF96E6200220021172000F0B4F908
:103E3000AE6121002000FEF7CBFF00230321084ADA
:103E4000A354084AA3500432A3501032A154064A86
:103E5000A352064A13600122054BE25070BDC046D2
:103E6000540800005C080000720800003C180020A4
:103E70006C080000D0231B065868C001C00F7047B3
:103E80003222014B1A60704740180020804B70B5F9
:103E9000C35805000C00DB072ED46368452B1BD0EC
:103EA0000B2B54D0172B0CD0002B00D06FE0A36845
:103EB000002B65D186231B01EB58764A93423DD0F7
:103EC00070BDA368002BF5D1E368082BF2D1022264
:103ED000714BFF32EA5269E0704BEA58012AE9D18E
:103EE000A268082A00D1B0E0002AE3D10222EA50F9
:103EF00086231B01EB58E0E701F082F900292FD05F
:103F0000FA220023920003F0AFFA628801006448AD
:103F100004F06EF8616858292ED8624B8A00D35895
:103F2000002B29D01900604804F062F82E23E268C3
:103F3000E35CA1685D4804F05BF8AEE786230122EC
:103F40001B0100212800EA50FFF7E8FEB8E7002136
:103F50002800FFF7EFFE862300221B01EA50AFE79F
:103F6000FA21890003F03EFA628801004C4804F00F
:103F70003FF861685829D0D94D4804F039F8D5E7A1
:103F8000032B5BD0862302221B01EA5098E7032B08
:103F900010D0062B24D1A368002B00D08AE7E36859
:103FA000022B00D086E7434B0122EA544248FCF73B
:103FB0008FFE7FE7A368002B27D186231B01EA58D9
:103FC0000F2319001140042903D19A431300012241
:103FD0001A4380239B00134386221201AB506CE7E7
:103FE000102B1AD1A368002B00D063E76388DB078E
:103FF0003ED52E23E15C002943D186228023120185
:10400000A958DB000B43AB5057E7062B00D151E713
:10401000862304221B01EA5052E72E2B00D049E7E9
:10402000A368062B1CD004211A1F8A4301D00B2B36
:10403000EED1E3680F2BEBD1174BB5E7E268002A0E
:10404000A0D186221201AB503AE721001B4B303140
:10405000E8581B4BEB58984786231B01EB582CE77D
:10406000862280231201A9581B010B43AB5024E781
:104070002E232800E15CFFF75DFE86231B01EB5831
:104080001BE72800FFF74AFE86231B01EB5814E7C5
:1040900058080000010E00006E0800005C080000D7
:1040A000A40D01106C0E0110B80D0110C00D01100F
:1040B000BC0D01106D0800004D3D001064080000AB
:1040C00068080000F8B54746CE46040080B588462B
:1040D0001600FCF723FE1F4F00213D682000002D35
:1040E0000ED0FEF7C5FE320041462000FFF77CFDF2
:1040F0000500FCF71BFE2800C0BCB946B046F8BD61
:10410000FFF7B2FD01212000FFF7AEFD124B142096
:10411000E5548023D0251B0499462D06AB61FCF79E
:104120003BFE4B4632206B61FCF736FE002120003F
:10413000FEF7B8FE051EDCD1084B2000E118FFF7A2
:104140000DFD3222064B07481A603860FCF7C0FDAF
:10415000C9E7C0463C180020540800008809000048
:10416000401800204D3D0010094A8300944640222B
:10417000634410B51C68C0006240C0241440802213
:10418000520113431C60034B9C466044416010BDC8
:1041900004C00140004001400A4B80009C460423BB
:1041A0006044002901D00C230821002A00D10B0013
:1041B000026853400C221A4080235B0118430260BE
:1041C0007047C04604C00140084B80009C466044D4
:1041D000002905D080239B01184302230360704708
:1041E000C0239B01184302230360F8E704C0014089
:1041F000D0231B061B6830B50500581E83410F48AD
:104200005C42844607203023284023408000EC088D
:10421000814020000A4D3C3063448000A40041519D
:104220001B19002A04D0802292011343196030BD6B
:10423000C022920113431960F9E7C04600410140D2
:1042400000400140D023F0B5C64604001B06984646
:104250001B680C4F9B00F8580D00160000B5044277
:1042600009D1044332002900FC500D2000F09CF8D5
:1042700080BCB846F0BD01F05BFB43461B689B0069
:10428000F858EEE78CD4002010B504000D2000F0A3
:104290007DF9D0231B061B6802499B005A58A24394
:1042A0005A5010BD8CD400200123D0228340120626
:1042B00093629361094A83009446402263441968DB
:1042C000C0004A40C02111408022520113431960AE
:1042D000034B9C46052360444360704704C0014083
:1042E0000040014001238340002904D0034A1360A9
:1042F000034A13607047034A1360FBE780E200E063
:1043000000E100E080E100E001238340014A136006
:104310007047C04600E200E0084B10309B68800008
:10432000C358002B07D0064A00209B1A2F229A421E
:104330004041C0B270470020FCE7C04600ED00E0FD
:10434000E8050020024B10309B688000C058704781
:1043500000ED00E070B50D00EFF3108672B60F4A65
:104360001368002BFCD0BFF35F8F0D4B10309B68A0
:1043700084001B590B4A934203D09D4201D001F0A7
:10438000D7FA074B9B681D51BFF35F8FBFF35F8F59
:104390000022024B1A6086F3108870BD240100D001
:1043A00000ED00E0CD010010F0B557464E46DE4668
:1043B0004546E0B585B0060002911700EFF3108B7B
:1043C00072B6674A1368002BFCD0BFF35F8F0025DD
:1043D000644B5D579A46002D00DAA5E06B00624CF5
:1043E00003935B199B009846A146C1444B46524635
:1043F0009B79103613705D4BB2009B6801929958FF
:104400000B1B2F2B34D95A4B994200D0A5E0039BAC
:10441000584A9C46584B6544AD00635343460233AB
:104420006519E418554B0121043B1B1B1B055B0D53
:1044300013436B80524BEF71AB80FF23AB71029B38
:10444000AB604B460B431900484B019A9B6899504F
:10445000BFF35F8FBFF35F8F0022414B1A608BF376
:10446000108805B0F0BCBB46B246A946A046F0BDD8
:1044700001200A008243D379BB422FD845464E46DD
:10448000130040491B1B5B415943090D3A4B6353D1
:104490003A4B02356519043B5B1B1B05354D5B0D23
:1044A0002B4373800426B446E0444444131F1B1B73
:1044B0004C46A17102991B05A16049465B0D2B4337
:1044C000A380314BE77101431360BDE75800C0186A
:1044D00080002018C679BE422CD902000623D3568C
:1044E000002BF3DA101D8246BD2000028046042610
:1044F0007642B446E14450464E46361A3005400DE9
:10450000824656461B48957106439680039A944608
:1045100065441D4AAD00641922604246A371029BA6
:10452000A280E771A3608FE701F002FA00255346ED
:104530005D5753E7101D824690884005001584465C
:104540004046D444664604302018301AE026000560
:10455000400D360230438046C9E701F0E9F956E7DD
:10456000240100D00CD60020E805002000ED00E07A
:10457000CD01001000E0FFFF00A1FFFF18060020A2
:1045800000BDFFFFAAAA000001488047F0B5DE4643
:1045900057464E464546E0B50C0083B0EFF3108A0F
:1045A00072B65A4A1368002BFCD0BFF35F8F1022FB
:1045B000914681444A46564B96009B689D59554BFF
:1045C00098469D4205D0A54216D0534FEB1B2F2B8A
:1045D00014D94F4B9B689D51BFF35F8FBFF35F8F23
:1045E00000224A4B1A608AF3108803B0F0BCBB4625
:1045F000B246A946A046F0BD1D00EAE7012383406C
:104600009B465A46454B1B681A4000925A46444BFB
:104610001A60BFF35F8FFBF726FE0190002803D0DE
:10462000814501D001F084F901232A009A4393685F
:104630009C4208D15FE04B005B189B00FB18996817
:10464000A14211D01A00062151560029F3DA009B2D
:10465000002B05D05A46334B1A60304B1A60B8E72E
:104660005A462F4B1A60B4E706215956002921DB20
:104670004A00501880003C188046A0689860E07995
:10468000D871062020569871002824DBA488F81AD7
:104690006405241544440019E0240005400D24025B
:1046A000204398805218204B9200BF181A78197036
:1046B000BA71CCE70199002910D1FF3191711B49E2
:1046C000918019490A789A71194ADB1B5B415A4358
:1046D000120D0A70BBE7BD200002E2E7154A164939
:1046E000D21A083A5002400D0143998013495208EA
:1046F0000A43DA80ABE70621515613000029B7DAE6
:10470000019A002AEAD14546DBE7C046240100D0E1
:1047100000ED00E0CD010010E805002000E100E020
:1047200080E100E080E200E00CD6002000BDFFFF49
:10473000AAAA00002206002000F0FFFF00F8FFFFF9
:10474000032310B50400074A18409446C0009C4358
:10475000FC3383406444226881409A4313000B4336
:10476000236010BD00E400E0F8B501250400054316
:10477000FBF779FDEFF3108C72B6214A1368002B1A
:10478000FCD0BFF35F8F1F4E2100B7681E4A1F4B3E
:10479000891A49414B431B0D59B28300F858A8426E
:1047A0001CD00623D3568B421CD01223D3568B42E7
:1047B00022D01E23D3568B4220D02A23D356032047
:1047C0008B4210D0124B1A781970A271BFF35F8F11
:1047D00000220B4B1A608CF31088F8BDB2680D48AC
:1047E000D050EFE7002043001B189B00D218FF2396
:1047F0009371094B9380E5E70120F4E70220F2E78B
:10480000240100D000ED00E0E8050020AAAA000085
:104810000CD60020CD01001000BDFFFF054B064A5D
:104820001360064A136053609360D3601361536151
:10483000936170478080808000E400E004E400E041
:10484000D0231F2110B51B061B68091A0248C01887
:10485000FCF754FC10BDC046F4D50020D02300B5B1
:104860001B061B680100074883B0C018064B0022D6
:1048700000930523FCF7F4FB002801DB1F23181A23
:1048800003B000BDF4D50020D00F011070B50400B6
:104890000E001500FCF764FC0100200000F006F893
:1048A000A680E580BFF35F8F70BDC046024B9C467B
:1048B00061448900016070474000003483680B4800
:1048C00010B5844661446244090112019A185918CE
:1048D00054684B6801209C4201D802D00020C0B22D
:1048E00010BD12680B689A42F9D8F7E7FFFFFF0F77
:1048F0000A4B1968EFF3108072B60A68002AFCD0E0
:10490000BFF35F8F1B68BFF35F8F00221A6080F3D5
:10491000108840BF002000217047C046A8D5002065
:10492000F8B557464E464546DE46E0B599460CABCF
:104930001C780DAB1B78060090469A460768002C41
:1049400011D1BC7B002C42D065003B682D19033D82
:1049500059194B78BB73002B00D1FB7300238B706C
:104960004B700B7004E065003B682D19033D59192D
:10497000B2682A4B94464246E3181B0163441A600E
:104980004A465A600A9A9A600B9ADA6000238B7042
:104990004B700B707B7B9B46002B2BD02200594623
:1049A000B8687B6898473A68002816D05B46584636
:1049B0005B005B445519033BA870D118D35C002BF6
:1049C00000D06B705B460C707B73A34513D0F0BCBA
:1049D000BB46B246A946A046F8BD5B465B005B44B9
:1049E000033BD3189C705119525D002A00D05A70B5
:1049F0005B460B707C7342464B46307D00F060FC9A
:104A0000051E06D05346002B03D12100306800F06C
:104A100079FE0E9B002BDAD01D70D8E7FFFFFF0F49
:104A2000F0B5DE464E46574645460023E0B58DB00C
:104A30000A936B4B8200D3580B90994600239B46F8
:104A40004B46079300F0DCFB079C06000F006268F2
:104A5000EFF3108572B61368002BFCD02200079488
:104A6000BFF35F8F2468637B9946002B67D0926801
:104A70005C4B90464B441B01984443461A685B6864
:104A800010001900801BB94100295FDD0B9800F070
:104A900017FC00230026984600279A46079C636867
:104AA000BFF35F8F5A461A6085F310885346002B78
:104AB00008D10028C6D10DB0F0BCBB46B246A9460D
:104AC000A046F0BD0A9B414618024B461843D0470A
:104AD000089009916268EFF3108572B61368002B95
:104AE000FCD00794BFF35F8F0899099A002A48DB2E
:104AF000114303D0079B1B69002B5DD1079B1B68EB
:104B0000D97B002907D04A00521819688C464946BB
:104B10006244033A51704A46DA734B46079A013BA6
:104B2000D168CA5C0132CA545B46079A1361536864
:104B3000BFF35F8F5A461A6085F3108882E700231F
:104B40000026984600279A460020A7E7002901D1B1
:104B500000289BD10021200000F056FD43461E682E
:104B60005F689B68079A9A464346DB689846D36815
:104B70004B44013B1B780A931B0203431361002043
:104B80008CE72369002BB9D033003C005B1A9441B9
:104B90001A002300A74219D89F421BD059460491FE
:104BA00001210391494602914146019151460798DE
:104BB0000091FFF7B5FEB7E700F022FB089A099BCA
:104BC00006000F0092197B419942E5D90122524219
:104BD000D317E3E79642E1D901225242D317DDE72A
:104BE000C0C40020FFFFFF0FF8B557464E464546AC
:104BF000DE46E0B5404D81468A466A68EFF310888C
:104C000072B61368002BFCD0BFF35F8F2E68B47BA5
:104C1000002C39D0670033683F19033FDB195A78FD
:104C2000B273002A00D1F273A968344A8C4649460F
:104C3000A2181201624411605146516030499160DE
:104C40000021D160997059701970737B9B46002BBD
:104C500035D022001900B068736898473268002880
:104C600020D05B4658465B005B44D719033BB870C5
:104C7000D118D35C002B00D07B705B460C70737333
:104C80005C451DD0002626E06B68BFF35F8F1C607B
:104C900088F3108801204042F0BCBB46B246A946CA
:104CA000A046F8BD5B465B005B44033BD3189C7099
:104CB000D119D25D002A00D05A705B460B70747314
:104CC0004A465346287D00F0FBFA061EDAD0210042
:104CD000286800F017FDEB681B19013B19786B6819
:104CE000BFF35F8F00221A6088F310880020002E27
:104CF000D2D108022043CFE730060020FFFFFF0F8C
:104D0000F148001010B5124C6368002B04D00A2142
:104D10001048FFF7CBFD10BD23000F4A102120687B
:104D200000F090FB032000F05FFA032000F038FB56
:104D300003200A4900F07EFAFCF712FA084B9C4661
:104D4000032360442375074B80006060DC60DEE76E
:104D500030060020A8D50020BD480010214A0010D0
:104D600040000034C0C400200048704730060020D6
:104D7000F0B557464E464546DE46E0B585B0019350
:104D800010AB1B780600039300239A4698460092C6
:104D90007268EFF3108972B61368002BFCD0BFF372
:104DA0005F8F3568AC7B002C49D067002B683F19BA
:104DB000033FDB195A78AA73002A00D1EA73B1685D
:104DC0004F4A8C4600980199A21812016244106063
:104DD00051600E9991600F99D16042469A705A7055
:104DE0001A706B7B9B46002B45D022001900A868E7
:104DF0006B6898472A68002830D05B4658465B00AD
:104E00005B44D719033BB870D118D35C002B00D09A
:104E10007B705B460C706B735C452DD0F3681B197F
:104E2000013B18787368BFF35F8F42461A6089F3BD
:104E300010885346002B2CD10002204307E07368F2
:104E4000BFF35F8F1C6089F310880120404205B0DA
:104E5000F0BCBB46B246A946A046F0BD5B465B002F
:104E60005B44033BD3189C70D119D25D002A00D05B
:104E70005A705B460B706C73307D009A019B00F09A
:104E80001FFA82460028C9D02100306800F03AFCA1
:104E9000C4E7039B002B30D00E9B00200F9998474E
:104EA000030004000D000B4327D000290DDA009801
:104EB000019902000B00121BAB41994213D818D084
:104EC00000920193039B9A4662E700F099F9020071
:104ED0000B00A4185D4100940195A94203D8F1D1BB
:104EE00000998A42EED901235B42DC1700930194BA
:104EF000E8E700999142E3D9F5E70020A7E7C0462B
:104F0000FFFFFF0F70B542680400EFF3108572B623
:104F10001368002BFCD0BFF35F8F2068CEB2437BB9
:104F2000B3420AD0FF230B405A00D31802689446BC
:104F30006344033B9B78002B13D0E268FF23944625
:104F40000B406344013B0A0A1978D2B291420ED059
:104F500000206368BFF35F8F00221A6085F310881A
:104F600070BD22698A42F3D100202361F1E731004C
:104F700000F0C8FBEDE7C046F0B504000D000626C2
:104F80007642F717C64636196F4100B58F4213D8DF
:104F900010D000F035F932003B00121A8B41002B83
:104FA00014DC002B37D02900200000F033F980BC3E
:104FB000B846F0BD8642ECD90026002700F020F963
:104FC00032003B00121A8B41002BEADD3000390021
:104FD000FFF70AFE0028E6DB00239846BC460F4A8E
:104FE0000F4F7B6A9C4504D8B96A8E42DBD99C4539
:104FF000D9D11168EFF3108072B60B68002BFCD08A
:10500000BFF35F8F1368BFF35F8F4146196080F372
:10501000108820BFE5E7002AC5D0D7E7A8D5002033
:105020000040054070B5060000F0EAF8FA220400DE
:105030000D00002330000021920002F05BFD0019FA
:1050400069418D4205D802D0FFF796FF70BD8442BA
:10505000FAD901204042C117F6E7C046F8B5CE465E
:10506000474680B506000C00FFF7BEFD00280CDCAB
:105070002D4B0020596A8C4203D89B6A0130B34201
:1050800045D3C0BCB946B046F8BD20BF274D6A68BD
:10509000EFF3108772B61368002BFCD0BFF35F8F5D
:1050A0002B68C1B29C465B7B8B4235D0FF2303400B
:1050B0005A00914662461268994490464A464244D4
:1050C000033A9278002A1DD0EA68000A90464344C9
:1050D000013B1B78C0B2834221D06B68BFF35F8F66
:1050E00000221A6087F310880F4A0020536A9C42FE
:1050F000C7D8926A0130B242C3D2E01A421E904130
:10510000C0B2BEE72B699842E7D12A61E5E7601A91
:10511000431E9841C0B2B4E7FF230340D4E7604682
:1051200000F0F0FAD9E7C046004005403006002004
:10513000F0B5D6464F464646C0B5EFF305833F224D
:10514000134018001038EFF3108C72B6204D2A6807
:10515000002AFCD0BFF35F8F0122110081401D4C5B
:10516000884661631C4917000E788A463100C140A9
:105170000F400A4209D1BFF35F8F2F608CF3108874
:10518000E0BCBA46B146A846F0BD14498200646A44
:1051900051588C420FD3124BD25843469E4353462C
:1051A0001E70BFF35F8F00232B608CF31088002AE2
:1051B000E6D09047E4E70B4A9B00904643441A68C8
:1051C0001A60BFF35F8F00232B608CF31088D7E742
:1051D000280100D00040054014D60020B4D500209E
:1051E000F0150020D03F054010B50100024A0348E9
:1051F000FBF714FF10BDC046EC0F011008D60020CD
:10520000034B596A0A00986A596A8A42FAD1704770
:1052100000400540064A536A9942FCD807D1044B26
:1052200002E05A6A914202D19A6A8242F9D37047E7
:105230000040054070B504000D00EFF3108672B613
:105240001A4A1368002BFCD0BFF35F8F002D1BD0D0
:105250002000FFF777F8164981420AD02000FFF7B7
:1052600079F801212000FFF73DF80123A340114AFE
:105270001360114BA400E550BFF35F8F00220B4B6E
:105280001A6086F3108870BD0B4BA200D550012226
:10529000A2400A4920000B7893430B700449FFF7A2
:1052A00075F900212000FFF71DF8E5E7280100D07F
:1052B0003151001038600540F015002014D6002050
:1052C000F0B54F46D6464646C0B507002F4C616A3A
:1052D0000D00A66A616AA942FAD18B4208D805D0AE
:1052E0000120E0BCBA46B146A846F0BDB242F7D9AB
:1052F000EFF3108A72B6264801680029FCD0BFF38C
:105300005F8F0125BD402349204C88460978894696
:105310002943C9B28C46414660460870391D1E4873
:10532000890065630A51B9000B50216A00202942A7
:1053300019D0616A0800A66A616A8142FAD18B427B
:1053400019D801D1B24216D8CC451DD00F4B1F2021
:105350001D625D6301230740BB40104A1E38136085
:1053600043464A461A70BFF35F8F0022084B1A600B
:105370008AF31088B5E70020BFF35F8F0022044B4B
:105380001A608AF31088ACE70120ECE70040054082
:10539000280100D014D60020B4D5002080E200E01F
:1053A000EFF3108C72B60A490B68002BFCD0BFF3E8
:1053B0005F8F01238340074A0748136202789A43AC
:1053C0000270BFF35F8F00230B608CF3108870476F
:1053D000280100D00040054014D6002070B505001B
:1053E00014001600002915D00C00002A12D0806885
:1053F0006B689847296800280ED073009B196200DB
:10540000033B1219CB18033A9C7088188A5C002A57
:1054100015D10670200070BD63001B197200033B9C
:105420009219CB18033A9E7088188A5C002A02D120
:1054300004703400EEE75A7004703400EAE75A70E2
:105440000670E7E730B583600023CCB243730133C5
:10545000047342608373C4730D000068012C06D985
:10546000421C0133DBB2137003329C42F9D1FF219D
:1054700029404B005918002340180338437030BDB1
:10548000F8B5CE46474606000C0080B5002907D087
:105490004D0003686D18033D5A195778002F04D149
:1054A0002000C0BCB946B046F8BD7900C91903391F
:1054B0008846434459788946002159705170736871
:1054C0003A002100806898473368002814D042468B
:1054D0009A18947059195B5D002B00D053700F70AF
:1054E000270049463000FFF7CBFF390002003000AB
:1054F000FFF774FF0400D3E7424641465D19AF70E1
:105500009A185B5C002B00D06B701470E9E7C04602
:10551000F0B557464546DE464E46E0B50D006B00F9
:1055200001685B19DF1E0400C85D83B00192CA19CF
:1055300000284CD043001B18033BCB185E78B446C0
:10554000002E16D1019E002E3ED0E67B002E04D008
:1055500073009B19CB18033B5D70E57300282FD1B6
:105560000023537003B0F0BCBB46B246A946A04628
:10557000F0BD72006244033A89184A7890460022CE
:105580004A7091465A70010032002000FFF726FF52
:1055900043468246002B07D05B0021684344033B0F
:1055A000CB185A78002A16D1424651462000FFF700
:1055B00015FF2168019BCA19002BC6D10028CFD046
:1055C00043001B18033BCB1800219970C8E7019BCF
:1055D000002BBAD1C4E75000801803380918487866
:1055E000834648464870587041462000FFF7F6FE53
:1055F000594680462000FFF743FF41460200200045
:10560000FFF7ECFE8046CFE7F0B557464546DE464D
:105610004E46E0B583B00191457B04006B00006805
:105620005B19DF1EC15DC21900294ED04B005B180B
:10563000033BC3185E78B446002E18D1019E002E9D
:1056400040D0E67B002E04D073009B19C318033BA7
:105650005D70E573002931D1002328005370617318
:1056600003B0F0BCBB46B246A946A046F0BD7200EE
:105670006244033A80184278904600224270914674
:105680005A7020003200FFF7A9FE43468246002BE5
:1056900007D05B0021684344033BCB185A78002AAB
:1056A00017D1424651462000FFF798FE019B0100AA
:1056B0002068C219002BC4D10029CDD04B005B1843
:1056C000033BC31800209870C6E7019B002BB8D19C
:1056D000C2E75000801803380918487883464846C6
:1056E0004870587041462000FFF778FE59468046C2
:1056F0002000FFF7C5FE414602002000FFF76EFEC6
:105700008046CEE770B5040000292CD0437B8B4245
:105710002ED0056848004018033828188278002ADF
:1057200021D053009B18033BEA5CEE188A4202D159
:105730001BE0002A08D053009B18033BEB185A7853
:105740008A42F6D142785A70002301228370437056
:105750002000FFF7DDFE617B02002000FFF73EFE28
:105760006073012000E0002070BD43783370EBE7E8
:1057700001221900FFF7CCFE60730120F4E7C04658
:1057800010B50400FBF7ECFC01002000FFF78EF8D9
:10579000FF232371BFF35F8F10BDC04610B5040017
:1057A000FBF7DEFC01002000FFF780F8FF23A38059
:1057B000BFF35F8F10BDC04610B504000120FBF79A
:1057C000DBFC044B9C46604480002060BFF35F8F8D
:1057D00010BDC046400000342C4B2D4A70B51A60F5
:1057E0002C4A2D4B2D491A6014008B689C43FBD129
:1057F0002B4D2C4EB54208D2013E761BB60808CD83
:10580000984723000134B342F9D100F097F8264AB3
:10581000214B1A60214A9368DB43DB01DD09002B31
:10582000F9D14022214B224C224E9A675A671A67BF
:10583000DA66B44208D223682000002B20D0083456
:10584000FFF7ACFFB442F6D31B4E1C4CC022A1683C
:10585000300002F0C3F9A660FBF774FCFEF7DEFF30
:10586000FFF750FA164C174EB44208D2013E361BD1
:10587000B60808CC98472B0001359E42F9D170BD7F
:105880000834FFF77DFFB442D5D3DDE700E00040E8
:10589000BFCDFBFEFE7F3C0000F0004000C000409A
:1058A000200F0020300F0020FFFFFF0100F001401B
:1058B000180F0020200F00200000002000ED00E065
:1058C000300F0020380F0020094A0300106800281C
:1058D00005D00849C3188B4207D8136070470648A3
:1058E0000449C31810608B42F7D901204042F5E704
:1058F000042700200000042018D6002000BEFDE789
:105900000FB400B5084883B002F0D0FA049B002B16
:1059100007D005A91800019101F016FD034802F017
:10592000C5FA00BEFDE7C046101001103C09011089
:1059300010B50148FFF7E4FF2010011030B50C202E
:1059400083B000F0B7F9FBF7F5FB00280ED0944BBD
:10595000944A1A605A609A60DA601A615A619A61D0
:10596000DA611A62904A5A6203B030BD8F4CA06768
:1059700000F0F4F901228E4B1A60636C012BFCD10C
:1059800003228C4B1A60894A936B012BFCD10133A3
:105990000121894A89480093043300F033F9052333
:1059A000874A00930121874800F02CF9864B5A68FA
:1059B000FF2A02D8802252005A608022784C7D4B08
:1059C00021691201804D1A60002905D0606901F03B
:1059D00009FD01300138FDD1E0217B4B02201A681E
:1059E0001140802252012A43116019684840032166
:1059F0000140116004219A681142FCD0802280216C
:105A000092012A4309011160802252005A606F4BB3
:105A100023616F4B5968FF2900D85A600321644AFB
:105A20006B4B116002399A681142FCD0E0201A6871
:105A30001040802252011A43106018684840032128
:105A400001400220116062498A681042FCD0802225
:105A500092011343802212011A6080225D4B520092
:105A60004A6063615C4B5968FF2900D85A60802204
:105A70005A4BE1691201584D1A60002905D060693E
:105A800001F0B0FC01300138FDD1E02252490B6831
:105A90001A4080235B012B431A60802380229B01E4
:105AA0002B4312011A6080223E4B52004A60E36190
:105AB0004B4B5968FF2900D85A608022494B216A14
:105AC0001201474D1A60002905D0606901F08AFC77
:105AD00001300138FDD1E02241490B681A40802392
