:020000041000EA
:1000000000B5324B212058609868022188439860DF
:10001000D860186158612E4B002199600221596106
:100020000121F02299502B49196001219960352056
:1000300000F044F80222904214D00621196600F024
:1000400034F8196E01211966002018661A6600F04E
:100050002CF8196E196E196E052000F02FF8012189
:100060000842F9D1002199601B49196000215960AB
:100070001A491B48016001219960EB211966A021F2
:10008000196600F012F800219960164914480160C1
:100090000121996001BC002800D000471248134993
:1000A000086003C880F30888084703B5996A0420EC
:1000B0000142FBD001200142F8D103BD02B5186610
:1000C0001866FFF7F2FF186E186E02BD00000240BE
:1000D000000000180000070000035F00212200005C
:1000E000F4000018222000A00001001008ED00E03C
:1000F00000000000000000000000000074B24E7A12
:1001000000200420F7010010C3010010C5010010F9
:10011000C1010010C1010010C1010010C101001097
:10012000C1010010C1010010C1010010C701001081
:10013000C1010010C1010010C9010010CB01001065
:10014000CD010010CD010010CD010010CD01001037
:10015000CD010010CD010010CD010010CD01001027
:10016000CD010010CD010010CD010010CD01001017
:10017000CD010010CD010010CD010010CD01001007
:10018000CD010010CD010010CD010010CD010010F7
:10019000CD010010CD010010CD010010CD010010E7
:1001A000CD010010CD010010CD010010CD010010D7
:1001B000CD010010CD010010CD010010CD010010C7
:1001C00000BE00BE00BE00BE00BE00BE00F04BF888
:1001D000103800BEF2EB8871B0250510D02505104F
:1001E0003402001090A31AE700202149086006C8D5
:1001F00081F3088810471F48006800282FD10DA4FC
:100200000ECC002902D000F012F8F9E71A491B4A77
:10021000002000E001C19142FCD1194988471949E9
:1002200088471949884700BEFDE701C901C29A42C3
:10023000FBD37047D0250510C0000020880F002098
:1002400098340510000004200000042098340510A4
:1002500000100420001004200000000070470B482C
:1002600002F0DCFD0047EFF30580C0B270470000EC
:1002700008ED00E0000000D0880F0020B8D6002074
:10028000F18500105D03001015870010575600001F
:1002900006005250ABB3605340B0011006005250FC
:1002A000861C030250B00110060052505422A29D39
:1002B00058B0011005005250DE65F46898340510FE
:1002C000F8B5C0460448054B10B5834203D0044B33
:1002D000002B00D0984710BD880F0020880F002009
:1002E0000000000006480749091A8B10C90FC918F9
:1002F00010B5491003D0044B002B00D0984710BD17
:10030000880F0020880F00200000000010B5074C67
:100310002378002B09D1FFF7D5FF054B002B02D026
:10032000044800E000BF0123237010BD901100209D
:1003300000000000689E0110054B10B5002B03D093
:100340000449054800E000BFFFF7CCFF10BDC046E0
:100350000000000094110020689E0110F0B5DE46F8
:1003600057464E464546E0B5A9B00AF08DFD02F06D
:100370002BFA002800D030E1052006F089FED023BA
:1003800020221B065A6200F0EDFB00F007FC02F091
:100390008DF89A480AF0CAFC994B9A4A9A499B48A8
:1003A00002F092F8002800D0BCE099480AF0BEFCA8
:1003B00001F022FD8146002800D114E100F04EFD3D
:1003C000944B9A46944B9B4666E0281C04960597EE
:1003D0000AF0EAFA0290039140460AF0E5FA8F4AE1
:1003E0000090019196210FA809F096FE0FA80AF03F
:1003F0009DFC0FA819F0BEF80026894A514683B229
:10040000029248460396019600960FAA01F02CFA34
:1004100084490700201C0AF0C1FA002806D082494E
:10042000201C0AF0B5FA002800D0B2E07F49281C51
:100430000AF0B4FA041E00D07FE0281C79490AF0C3
:10044000A7FA051E00D098E0404679490AF0A6FABE
:10045000041E00D0A9E0404676490AF099FA002827
:1004600000D0AEE0002F00D0C3E05B4600211A6848
:1004700071480AF0FDFC5B461B68002B09D06F48F1
:100480000AF0F6FCD02320221B069A6100235A466C
:1004900013606B4807F0D2FC0121002002F0AAF89B
:1004A00000F0D8FB041C0AF07FFA060007A80F0032
:1004B00000F0E2F8089B079D191C09A8984600F077
:1004C0008FFB291C0CA800F09DFB00F081FB012292
:1004D000052100205B4B00F0A7FB02220F2100202A
:1004E00009AB00F0A1FB012223210020564B00F0B4
:1004F0009BFB02220CAB2D21002000F095FB00F0AD
:10050000A1FB0021002002F075F8642007F096FCA2
:10051000484601F0C5FF002800D056E7484600F0E5
:100520009DFC52E749480AF001FC012029B0F0BCCB
:10053000BB46B246A946A046F0BD0023384A039305
:100540000292019300934846414A4249203301F008
:100550008BF9002803D001003F480AF089FC5B4674
:1005600001211A6834480AF083FC3C480AF080FCF8
:10057000D02320221B065A618BE7294B4846029361
:10058000374A1F23334903940194009401F06CF916
:10059000DFE7234B48460293324A1E232D49039638
:1005A0000196009601F060F9D3E71D4B484602938F
:1005B0002D4A2323274903950195009501F054F90D
:1005C000C7E7174B48460293284A22232149039440
:1005D0000194009401F048F9BBE725480AF048FC73
:1005E00001204042A2E723480AF0A0FB012040423C
:1005F0009CE7390018480AF03BFC36E7289F0110B9
:10060000307500000400400054A0011060A00110EB
:10061000549F0110D09F01102CC50020949F011001
:10062000B10E0010000020410000A04100000C426B
:100630000000C8410000A04018A0011008A001104F
:1006400088130000789F0110889F0110409F0110BF
:10065000889E0110E49F011040A00110F89F011036
:10066000AC9E0110689E0110CC9E0110F09E0110FE
:10067000149F0110609F0110F0B52E4F85B005004A
:100680002D49380018F066FB0321122006F060FCAB
:100690000321132006F05CFC00220121122006F049
:1006A0006FFC00220121132006F06AFC0B220026B9
:1006B0006A441670012327210096380003AC039684
:1006C00018F072FB642007F0B9FB220004232721F5
:1006D0000096380018F0D0FB642007F0AFFBA0783C
:1006E000E3780002C01880080AF058F80022134B83
:1006F00009F0D1FF0022124B09F0E7FF0022114B55
:1007000009F0BFFF0AF092F8061C20786378000217
:10071000C0180AF043F80022084B09F0BCFF002281
:10072000094B09F0D2FF0AF081F8286028006E60BA
:1007300005B0F0BD20070020400D030000FFCF40B2
:1007400000A064400000444000005940F0B5DE467F
:1007500057464E464546E0B589B0019312AB059227
:1007600004CB079151781B78009200296DD0203B73
:100770000693137800220492013292460632934681
:10078000049D069CAC464C43009A62441219927830
:100790009146002B53D00199079C0A00A4466A4356
:1007A000624490460D00029245444A1E0024039282
:1007B0002A00A4464D46914606E06246013252B2F6
:1007C00094466D089A4238DA52462A42F5D0019C86
:1007D000614622004A430599039F88469044029946
:1007E0004744002CE9D02B004546984603782A0060
:1007F0008B4215D9447894420CD9D40863435C46A3
:1008000056461440A6403400C6685B18F65C344374
:10081000C668F454974203D0037801328B42E9D87A
:1008200001318945E2D162464546009B01321B7881
:1008300052B294466D089A42C6DB009A5178049AE7
:100840000132D2B204928A429AD309B0F0BCBB46BC
:10085000B246A946A046F0BDF0B5DE464E46454636
:100860005746E0B58BB01F00149B06009B46D3B2E1
:10087000737015009846D3085A46C8B2DBB2307080
:100880005843B3703061F7707260013089460AF0E6
:10089000C5F8F060002800D174E03B4B03AC039333
:1008A0004346013B2371D32363718023DB01E38043
:1008B0008D232372337A0130F060002B48D114234A
:1008C0006372324B6D006381DA232373A94551DDD6
:1008D00002236373813BE3815933FF33237418335D
:1008E00063742B4B02AD63822A4B0893002323765B
:1008F00025336B449A46284B9846284B99460BE083
:10090000431C03D1414626480AF0B2FA013454454B
:1009100016D07368F7789B46002322782B706A7094
:10092000390000932A000233584618F03DFA831C20
:10093000E6D14146484601340AF09AFA5445E8D1D6
:1009400001200BB0F0BCBB46B246A946A046F0BDA4
:10095000102363720D4B6D006381DA232373A94565
:100960000CDCC83B6373913BE3815933FF33237441
:10097000B73BB5E712236373913BACE70223637384
:10098000813BF1E73061DCE7AED580A8A1C8FFFF6D
:10099000DB300000A4A6AF2070A0011080A00110E1
:1009A000A0A0011070B51A4B84B003AD2B800023BA
:1009B0000E00C1780093040002332A00406818F04A
:1009C000F3F9831C19D0431C03D1124912480AF0D1
:1009D0004FFA00236E702B702A000093E1780233E7
:1009E000606818F0E1F9831C0CD0431C03D109495D
:1009F00009480AF03DFA04B070BD064907480AF0FC
:100A000037FAE6E7034905480AF032FAF3E7C04649
:100A10000081FFFF70A00110A0A0011080A00110B4
:100A2000030010B50021C0681A690AF011F810BD62
:100A3000F0B557464E464546DE46E0B583B00C9DC0
:100A400081462C7892461F000E00002C13D0DB004C
:100A500098460F4B9B4601357E2C13D85B463100E0
:100A60000194009352463B004846FFF76FFE2C78F6
:100A70004644002CEFD103B0F0BCBB46B246A946B9
:100A8000A046F0BD2C784644002CE4D1F3E7C046E4
:100A9000C0A00110F0B5CE464746212380B50278AC
:100AA00087B004AC511E2370A17000232221637013
:100AB000E170237183780600013B6371402A03D102
:100AC000202363703F33A3701627224B6F44984650
:100AD000214B03AD994608E0431C03D141461F4812
:100AE0000AF0C6F90134A74213D0002322782B70F4
:100AF0006A70F17800932A000233706818F054F994
:100B0000831CE9D14146484601340AF0B1F9A742B5
:100B1000EBD140220024F368013B1A703369F2687C
:100B20000133F1787068013A009418F03DF9831CA4
:100B30000AD0431C03D10A4908480AF099F907B0C2
:100B4000C0BCB946B046F0BD054903480AF090F96B
:100B5000F5E7C04670A0011080A00110A0A0011010
:100B6000B0A0011010B50B490B4818F0F3F80321A1
:100B7000002006F0EDF90321012006F0E9F900223A
:100B80000121002006F0FCF900220121012006F0DD
:100B9000F7F910BD400D030018070020002310B521
:100BA000094C82B02372094B4022009380213C23E0
:100BB0002000FFF751FE1F212000FFF7F3FE200069
:100BC000FFF72EFF02B010BDC8220020180700203A
:100BD00010B50248FFF724FF10BDC046C822002010
:100BE00010B5040082B0081C09F0DEFE044A009033
:100BF00001910A21200009F08FFA02B010BDC04611
:100C0000A0A2011010B5040082B0081C09F0CCFEAF
:100C1000044A009001910A21200009F07DFA02B0F7
:100C200010BDC046A8A2011000B583B00093130008
:100C30000A0001000248FFF7FBFE03B000BDC046FA
:100C4000C822002010B50248FFF724FF10BDC0469F
:100C5000C8220020F0B5C6460124224F224D3B6831
:100C60002E68180000B5984606F012FA300006F01B
:100C70000FFA2300B340D0263606B3624246230063
:100C80009340736223003A6802209340B36107F0F7
:100C9000D5F823003A680A2093400021736107F0D9
:100CA000B5F822003B689A402B68B2619C4073689B
:100CB0001C42FCD107F0B0F9D02206000F0012064A
:100CC00053681C42FCD007F0A7F9801BB94109F01A
:100CD00069FD0022054B09F0DEFC09F0A7FD80BC90
:100CE000B846F0BD2C0600202806002000004D402C
:100CF00010B502480AF0BCF810BDC046B0A2011001
:100D000010B50C0007480AF0B3F80749200018F0A6
:100D1000EDFB41424141054B054819600AF0A8F836
:100D200010BDC046C8A20110FCA20110702B00200B
:100D30000CA30110F0B517008FB01A000E00164872
:100D400039000AF095F800232E22002102A8019311
:100D500009F07EFE11480AF08BF8002F0AD000241B
:100D600001AD305D09F092FF335D01342B70013528
:100D7000A742F6DC0A2009F089FF094901A818F00A
:100D8000A5FD002805D00122064B07481A600AF08D
:100D90006FF80FB0F0BDC04620A3011054A301109E
:100DA00060A301102CC5002068A3011030B50D0010
:100DB000040011008BB0002A15D11C4809F0B6FFC1
:100DC0002B0020001A4A1B4901F012F801231A498E
:100DD000019301222000194B009500F0BFFE011E77
:100DE0001FD10BB030BD16480AF042F8182200217E
:100DF00004A809F02DFE134B03AD03936423AB81CC
:100E0000114B02A902930023200000930F4A104BBC
:100E1000019500F0F9FF011EE3D00E480AF028F812
:100E2000DFE70D480AF024F8DBE7C0467CA3011099
:100E3000350D0010010D0010FCA20110F10C001086
:100E4000C0A30110E4A30110C0A801A35B07000028
:100E5000AD0D0010ECA3011098A3011030B58BB0BC
:100E600004001822002104A809F0F2FD0B4B03AD89
:100E700003936423AB810A4B02A902930023200051
:100E80000093084A084B019500F0BEFF011E01D1F6
:100E90000BB030BD054809F0EBFFF9E7E4A3011002
:100EA000C0A801A35B070000AD0D0010ECA301106A
:100EB00010B5002900D110BD014809F0D9FFFAE7AB
:100EC00004A40110F8B50D008021428803880400B5
:100ED0009B1A49028B4201D30133FF33802198B220
:100EE00049001B0407001B0C891A8B4200DB8FB2E0
:100EF0006423EE5A002E45D0002F43D0111D6118F7
:100F0000B7422DD23E0087422AD203233A0028005E
:100F100011F040F8002835D16388FF18BFB2FF2FC9
:100F200002D9013FFF3FBFB2642380226780EE5A9F
:100F300023885202DB1B934201D30133FF3380210C
:100F40001A04120C49001000C91B8A4200DD080077
:100F5000864202DB8A4216DA9EB2391D89B26118D6
:100F600001233200280011F015F800280AD1638807
:100F7000F618B6B2FF2E01D9013EFF3E280066806A
:100F800011F01AFDF8BD80267600F61BB6B2E4E734
:100F900070B50400C0680E00002811D000210EF0CA
:100FA000CBFC0021E0680EF0D3FCE06800210EF0DD
:100FB000C9FCE0680FF06EF900281BD10023E36044
:100FC000A369002B04D01A001B681260002BFAD111
:100FD000002521000948A56112F088F9A37A002BA9
:100FE00007D06369A572002B03D03200200021696D
:100FF000984770BDE0680EF0C1FDDFE701100010FA
:10100000F8B5837A0600022B02D0032B0ED0F8BD70
:10101000038801339BB29A000380D318632B5BDCF7
:1010200032003F493F4812F03FF9F0E70525846957
:10103000002C12D0E389AAB29D4262D3ED1A236834
:10104000EDB2B3616368002B41D00321A06849422F
:1010500098472460B469002DEAD17288002ADFD055
:10106000B38801339BB29900B380CB18510889181B
:101070008B4236DC338801339BB299003380CB1826
:101080009A42CDDC01203100EC238024EC31F25A6D
:101090004B886402D31AA34201D30133FF33802467
:1010A0001B041B0C6400E31A012B0DDDC0278B18F9
:1010B0001F71531C9BB2EC25FF2B25D900230B710C
:1010C00001337353002333800028A0D0A8E72460A5
:1010D000B469002DACD1C0E70221FF31FFF758FF02
:1010E00095E702213000FF31FFF752FF3388718806
:1010F00001339BB29A003380D31800209942C2DD9D
:1011000085E79B1AE381A8E7C9180023023292B24F
:101110000B71A24201D17353D4E77253D2E7C04698
:10112000011000108813000070B5837A0500032BAE
:1011300001D0002070BD0023AC69002603808380AD
:10114000002C1FD0002204E023682200002B19D0BD
:101150001C00A389002BF7D1002A19D02368136043
:101160002368002B03D0DA89E1895218DA81636899
:101170002660002B02D00021A06898472460AC694B
:10118000002CDFD12800E968EC30FFF79BFED0E7A8
:101190002368AB61E4E7C0469C46EC23F0B5C45A33
:1011A000C64680230500EC30468800B5A61B5B02CE
:1011B0009E4201D30136FF36370480263F0C76006D
:1011C000F71B032F1BDD6746EC2309017F009846C0
:1011D000394303191971631C9BB2FF2B1ED80221DE
:1011E000C3181971A31C9BB2B3420BD1F023022484
:1011F00052BAEA52EC23EC52E968FFF763FE80BC76
:10120000B846F0BDE11CC318170A89B21F71B1427C
:101210000BD1027101234246AB52EDE70223037169
:10122000130A032443718271E4E704344118A4B221
:101230000A71B442DED100234246AB52DCE7C0461D
:10124000F8B557464E464546DE46E0B51E006C23CF
:10125000C35C15008A1804001F09802A4FDC022F86
:1012600042D00D2F43D0032F5CD0012D47D90A9BCC
:101270005A78197812020A4352BA92B2002A3ED022
:10128000052F00D1C1E0062F00D1C4E00B2F36D8C6
:10129000A9231B01FB40DB0731D58669002E26D030
:1012A000002104E033683100002B20D01E00B389F8
:1012B0009342F7D1002900D1C7E033680B6033684F
:1012C000002B03D0DA89F1895218DA8100233360C8
:1012D000092F00D1A9E07368002B02D00021B0686B
:1012E00098470025366003E0837A022B0AD0002558
:1012F0002800F0BCBB46B246A946A046F8BD8025F2
:101300006D00F5E7012DFAD90A9B5D78002DEFD12C
:101310000323837243690580002BE8D00022016912
:101320009847E5E75B101F4000239846836EA94667
:10133000934223D04B46002B1DD043464B449D4245
:10134000DDD3256E002D07D0734273410A994A46BA
:10135000E06DDBB24144A847002EC8D1002FC6D0B3
:101360007B1E5A1E93412000191D22890023FFF77E
:1013700013FF0025BCE7002EB9D1DEE7002F4FD1C7
:10138000002302209C4601339D42B8DD0A9B0A9A45
:101390001B7852781B029B189BB2281A8342AEDC42
:1013A0007E226046521A121A9342A8D88022511AFD
:1013B0009A1C92B29046002F4AD0023291429ED39C
:1013C00095429CD341460A9A505C110041444A78A8
:1013D00000021218191D22818AB290460A9A911CA5
:1013E000CA18CB5C92469B46002313704346EB1A07
:1013F0009BB29946636E002B03D04A46E06D92196A
:10140000984753465A461A7094E701230621FFF77E
:10141000C3FE00256CE700230721FFF7BDFE66E74A
:10142000022304209C460133AEE7022D00D166E77B
:101430007368002B00D154E70A9A00219278B068B3
:10144000022A00D84CE70D394AE73368A36136E732
:101450000132914200D252E72781BFE7F0B55746EB
:101460004546DE464E46E0B585B00500924608008A
:101470000393002A00D1B6E0039B002B00D0A5E027
:1014800011890DF0EFFE53461B89002B00D17FE040
:101490000022002691460024170057E0DB1B9BB278
:1014A000B34200D3B3B28022121B92B2111C9A42F3
:1014B00000D9191C8BB29846AB6E7F2B5ED9534670
:1014C0005B899B46DB1B984558DD9BB298462900FB
:1014D0006C3143460919504600970DF0DDFBAB6EA9
:1014E00000904344AB664346F61A3300424621005F
:1014F0002800FFF7A5FE002800D06BE0002E42D1A7
:101500005346AE661B895B4542D9002300245F46E3
:101510009C4223D22B196C331B7899460134E4B2D8
:10152000012C0FD9A31EDA00D21A49467F230B40A3
:1015300093401E434B461B0604D4002E38D0AB6E9E
:10154000F61AA61953461B89BB4221D9012C02D990
:101550004A461206A2D5AB6E9C42DBD37B1C9BB2E3
:101560003900504698460DF06FFCAB6E81465A1C10
:10157000EB186C33AA6647461870CFE74346DB1971
:101580009BB29B46A3E753465F461B89BB42DDD80F
:1015900050460DF02FFA6B88002B01D00023AB8052
:1015A000039805B0F0BCBB46B246A946A046F0BDC4
:1015B00000232100002228000096FFF741FE534639
:1015C000AE661B890024BB42C8D8E1E710000DF0CD
:1015D00011FAE5E7070050460DF00CFA3900280033
:1015E000FFF7D6FCD7E7802128004900FFF7D0FCA1
:1015F00000230393D4E7C046002370B5C36083691A
:101600000400002B04D01A001B681260002BFAD1D2
:10161000002521000848A56111F068FEA37A002B7F
:1016200008D06369A572002B04D0802220002169B4
:101630005200984770BDC04601100010F8B5CE4664
:10164000474604000E00150080B5002A04D028008B
:10165000C0BCB946B046F8BD8266414930000EF0C4
:101660006BF930003F490EF06DF9300002223E491F
:101670000EF074F9022322003C49A37226003C4874
:1016800011F012FEEC2380222580EC367188E35A9B
:10169000E7685B1A5202934201D30133FF33802083
:1016A0009AB240001B0490461B0C401A834201DB97
:1016B00083B298466423FB5A9946002BC7D0434611
:1016C000002BC4D004317118C14512D801234A46F9
:1016D000380010F05FFC0028B9D173884B449BB2EE
:1016E000FF2B01D9013BFF3B3800738011F064F9F7
:1016F000ADE7C1464245E9D903234246380010F020
:1017000049FC0028A3D1738843449BB2FF2B02D924
:10171000013BFF3B9BB264227380BA5A8021914601
:10172000EC22A25A4902D21A8A4201D30132FF3274
:1017300080201104090C40000C00C01A81420CDC0E
:10174000A14506DB814202DB80225200D21A92B20E
:101750009146191D89B27118B8E70400F0E7C04638
:101760005D140010291100107517001001100010F1
:1017700088130000F0B5C64600B5837A04000D005A
:10178000032B03D0002080BCB846F0BD06008022A9
:10179000EC36E9337188C35A52025B1A934201D383
:1017A0000133FF33802298B252001B0407001B0C48
:1017B000521A934251DA6423EB5A9846002BE1D037
:1017C000002FDFD004317118BB4233D9B846B8427C
:1017D00030D903233A00280010F0DCFB0028D1D1D7
:1017E0007388FF18BFB2FF2F02D9013FFF3FBFB27E
:1017F00064237780EB5A80229846EC23E35A520206
:10180000DB1B934201D30133FF3380211A04120CF6
:1018100049001000C91B8A4200DD0800804506DB34
:101820008A4202DB80235B00DB1B9BB29846391D9A
:1018300089B2711801234246280010F0ABFB002842
:10184000A0D1738843449BB2FF2B01D9013BFF3BDE
:101850002800738011F0B0F894E76423EB5A97B234
:101860009846002BACD18DE7F0B5DE46454657468D
:101870004E46E0B587B0049310AB1B7805920093F9
:1018800011AB1D78837A04008B46002B00D160E1F8
:10189000080017F06FFEB04B0190984200D951E15B
:1018A00083B29C46049B821C984600230293009BB3
:1018B0004244002B00D014E180235B029A4200D303
:1018C00040E12300E6691C3392B29E4214D0E66ADE
:1018D00010339E4210D0E66B10339E420CD0012094
:1018E000E66C103340429E4206D007B0F0BCBB46C7
:1018F000B246A946A046F0BD00233360129B511C9E
:101900007360139B89B2B360029BB3811300DB0940
:1019100001319BB289B2002BF9D12000EC33EC30BD
:10192000E35A47889A46DF1B80235B029F4200D31D
:10193000E0E080233F043F0C5B00DF1BB94200DD89
:1019400003E1EC23984653460621C3189946009BB1
:101950005F000F40053929400F4330214B460F43AC
:101960001F71534601339BB2FF2B00D9C5E041469E
:1019700063527F21884600218027EC258A467F001C
:1019800003964146C618B14611407F2A00D99CE013
:101990003171591C89B26153B94200D189E0624664
:1019A00002334118120A9BB2039E0A71BB4200D057
:1019B000AAE0019B037101236353019A002A26D0F8
:1019C000EC218846002165460022B446894626005F
:1019D0000400584607E0434649460132F15291B2AD
:1019E00000238D4210D9815C8A465746E1180F7159
:1019F000802101339BB249008B42ECD04146013239
:101A0000735291B28D42EED8200034006646009A9F
:101A1000002A0ED0029FC2183D0A157180255A1C5B
:101A200092B2EC216D00AA4200D082E0012307713E
:101A30006352059A002A27D00499002924D0002255
:101A40008025A046059CB146A246EC2794460C0092
:101A500006006D0007E0434661460132D95391B25A
:101A600000238C420DD95146885CF11801339BB29A
:101A70000871AB42EFD041460132CB5391B28C4258
:101A8000F1D8300044464E46A1690023002948D0D1
:101A9000CA89D3180A0009689DB21BB20029F7D180
:101AA0001E235D1BF5811660E168FFF70BFA00202D
:101AB0001BE75346D209635321D000234146C61881
:101AC000B14611407F2A00D862E780267642314332
:101AD0004E4601339BB231716353BB42E9D0D20908
:101AE0004FE7E388023201339BB20293002B1CD0F4
:101AF000E380E1E60137FF371BE7002337E7634662
:101B00001B0A03710123039E019DC1180D718021E1
:101B100001339BB2EC2249008B4200D10023A35237
:101B20004BE71E23F381A661BEE70123E380029306
:101B3000C2E6023382189BB21771AB4200D1002378
:101B4000635276E710204042CFE6012036604042E3
:101B5000CBE60B204042C8E6FDFF0000F0B545464D
:101B6000DE4657464E46E0B585B01D000EAB40CB75
:101B700004001F78080003928846029717F0FAFCC9
:101B80009A4B02000090984200D90AE183B299462C
:101B90003B00591E8B410432D21880235B029A42CB
:101BA00000DBFEE0A37A92B2002B00D1FCE0E388D8
:101BB00001339BB29B46002B1AD0E3802300E769D8
:101BC0001C339F4218D0E76A10339F4214D0E76B52
:101BD00010339F4210D00120E76C103340429F42E7
:101BE0000AD005B0F0BCBB46B246A946A046F0BD3F
:101BF00001239B46E380E1E700233B605B46BB811A
:101C00001300511C7D60BE6089B2DB0901319BB2BB
:101C100089B2002BF9D120008026EC33EC30E35A56
:101C2000458876025D1BB54201D30135FF3580261C
:101C30002D042D0C7600751BA94200DDB7E002993A
:101C4000C6184D1EA9411F254942A9430133A2319F
:101C50009BB2CD353171FF2B00D900237F21EC26BB
:101C60008C466353813101976546C718BA461540C3
:101C70007F2A00D981E03D715D1CADB2A5538D4234
:101C800062D05A4602334519120A9BB2019F2A714B
:101C90008B4262D15B4603714B461B0A4371009B2A
:101CA00083710323EC22A352009A002A25D0EC2151
:101CB0008C4614318B4600218A46010000224046A2
:101CC0004D46B8460F0007E0634651460132E152E7
:101CD00091B200238D420ED9815C89464E46F91897
:101CE00001339BB20E715B45EED061460132635207
:101CF00091B28D42F0D838004746029A002A0ED0A1
:101D0000039DC1182A1C022D00D902220A718022CB
:101D100001339BB2520093423FD0143AA352A169BF
:101D2000002936D00023CA89D3180A0009689DB259
:101D30001BB20029F7D11E235D1BFD811760E168EE
:101D4000FFF7C0F800204CE70023D209A3538BD142
:101D50005B461B0A03710123019F5D46C218157182
:101D600080255A1C92B2EC216D00AA4223D1F022A8
:101D7000009B5BBAA352022394E780277F423D4336
:101D8000574601339BB23D71A3538B42DCD0D2093D
:101D90006AE71E23FB81A761D1E7EC230022E25210
:101DA000BDE7102040421CE70B20404219E701200C
:101DB0003F60404215E79E1CB6B2B4464E468218BC
:101DC000360A1671AC4504D1009B0371012363529E
:101DD0006AE76246009E033382189BB21671AB42DB
:101DE00000D05FE7002363525EE7C046FDFF0000BE
:101DF00002664166C3657047F82110B501204900AD
:101E00000CF02AFA10BDC046F0B557464E4645467E
:101E1000DE46E0B587B000921D00837A0400894653
:101E20009A46119F002B00D003E3036EF8229B46D5
:101E3000436E002152009846C66D08F009FE5B46CD
:101E4000236643466366109BE66523616561BB8933
:101E50003869638023001C33E3611033E36210337D
:101E6000E3631033E364002800D15DE17D69002D58
:101E700000D159E118233A7ED200134004221343C3
:101E80009A467B7E002B03D0524620231A4392466B
:101E900017F070FB431E0600FE2B00D933E2C3B2DD
:101EA0002800039317F066FBFF2800D92BE20E36BB
:101EB000C3B2351878680493ADB2002800D13BE175
:101EC000802352461A43924617F054FBCC4B421ED5
:101ED0009A4200D917E283B2019380230235ADB252
:101EE0002D185B029D4200DB0DE2B868ADB2002800
:101EF00000D127E1402352461A43924617F03AFB9D
:101F0000BF4B421E9A4200D9FDE183B20293802367
:101F100002352D185B029D4200DBF4E1ADB238685A
:101F200017F028FB802380465B02984200D3EAE149
:101F3000023545449D4200DBE5E1ADB22E006B1C4D
:101F40009BB201339BB2F609FBD18022520093422F
:101F500000D96AE200200DF0FDFEE060002800D10B
:101F600063E221000DF0E4FC0022A649E0680DF0D8
:101F7000DFF88346002800D0E7E04946A24B009AEC
:101F8000E0680DF0ABF98346002800D0DDE09F4902
:101F9000E0680DF0DDFC012322001021A372EB3379
:101FA0009946E35AEC32D01801339BB20171FF2BF2
:101FB00000D9D7E0494663527F2180268C46EC2029
:101FC000760011976146D718B94629407F2D00D970
:101FD000E1E03971591C89B22152B14200D1C5E00A
:101FE0000025023351189BB2119F0D71B34200D0EE
:101FF000C5E004231371033B23524D20D11808710F
:1020000001335120D1180871591C89B2AF30814277
:1020100000D0CCE0F0237E49E15202210220554657
:102020000543404686B204204B1C5118087180219C
:102030009BB2059549008B4200D0C9E01571BB8960
:10204000190A5171042193713B689C46330AD3717C
:1020500040464B1C5118087180219BB249008B42AD
:1020600000D0CAE0EC230021E1520023002E1DD055
:10207000EC2081461430654600218046BC4607E0CE
:102080004B4600200131E05288B2002386420CD931
:10209000D0186F5C01339BB207714345F0D04846BE
:1020A0000131235288B28642F2D867465146490729
:1020B00000D5E7E06946097D49B2002900DA26E14A
:1020C0005146490646D5BD68029FD1183E0A0E7199
:1020D0008026591C89B2EC207600B14200D153E130
:1020E000023351189BB20F71B34200D10023390063
:1020F000235200292ED000208026EC2784468946D2
:102100009046760006E06346E3530023013081B237
:1021100089451FD941462A5CC91801339BB20A710F
:10212000B342F0D0E353F1E7002378680A25049323
:102130000393002800D0C3E60023B8680193002869
:1021400000D0D7E600230293E9E6E0680DF016FD23
:102150000023E360584607B0F0BCBB46B246A94630
:10216000A046F0BD4B46E652002325E70023ED09CB
:10217000235200D026E7002313710123119F04206E
:10218000D1180871591C89B2FC30EC25814243D129
:102190000023635331E780277F4239434F460133A1
:1021A0009BB239712352B342E0D0ED090AE75425BE
:1021B000511802330D7199B281423AD1022351462E
:1021C000194343469EB2F02305911249E152EE3B7A
:1021D0000598D11808718020591C89B240008142AD
:1021E00000D045E1F021BB895BBA63523B689C4655
:1021F000330A93714346D3710423EC21635235E7CC
:10220000FEFF0000C0B501103D160010F9150010CA
:102210005454000054040000023361539BB251181F
:102220009F3D0D71834200D0EBE6F0239B49E152C4
:1022300002215420531818718023013189B25B00A8
:10224000994200D0EAE65146FE3B194343469EB20E
:102250000423059113715171B889030A9371032303
:10226000D118087180215D1C4900ADB289468D42AC
:1022700000D0ECE03B689C46330A1371434653712F
:102280000223BAE73969039E8C46B1B28846EC2135
:1022900000258946D1180D718021581C80B2490053
:1022A000884269D010180671981C80B2884200D00C
:1022B000C3E04B460020E552002101234546002D96
:1022C00000D19EE0EC239946434666460025BC4675
:1022D000009309E0023087B20800E1520135ABB249
:1022E0009846009B434559D9775D11180F71802797
:1022F000411C89B24B467F00B942EBD1002100203E
:102300000127E152EAE706235B429B4622E7EC21E4
:1023100001988C46050AD1187E680D718025591CDC
:1023200089B26D00A94234D0023351189BB20871B2
:10233000AB4200D1002361466352002800D1BFE6C2
:10234000EC25A8461435AC46002511970021A94676
:10235000070007E043464846E0520023013188B2B7
:1023600087424CD9D018755C01339BB20571634527
:10237000F0D040462352F1E701234946167101206F
:1023800063520133EB3999E7012317713900235266
:10239000AFE60123614610716352CEE73B0067460A
:1023A000786951188446002008718021049D4900F5
:1023B000AEB28B422CD1EC23FF391571E152EB3BCD
:1023C000002E00D176E6EC208146143065460021CF
:1023D0008046BC4607E04B460020E0520023013116
:1023E00088B2B04209D2D0186F5C01339BB207713A
:1023F0004345F0D048462352F1E767465AE6119F1D
:102400005EE67869511884466846068A4046087137
:10241000049DD0180571802001339BB2EC2140004F
:10242000834200D100236352CAE701235B429B46EB
:1024300090E60A235B429B468CE6494645460333B9
:1024400060529BB20100002D00D03BE7A8E70233A9
:1024500099B23B685519300A9C462871494500D00D
:10246000F6E5434601211371EC23E152EB3BFDE518
:10247000894691444D46B8890233010A2971802169
:102480009BB249008B4200D0EAE610713B689C4643
:10249000330A5371434693710323AEE6515400004F
:1024A000807A033843425841C0B2704710B5044B9C
:1024B000012200211B68034804F0DEFA10BDC0466B
:1024C0003006002098180020F0B5DE4657464546F5
:1024D0004E46E0B585B01C0093468246884605F01E
:1024E0009BFDFA2206000F0020000023002192002D
:1024F00008F00CFA8019794104000D008F4243D88E
:1025000040D04346002B45D0504617F033F8060024
:10251000404617F02FF80300234A3100914600226D
:10252000039202925A46019242464846009252460F
:1025300004F040FC8246002817D1A8461B4F00211A
:10254000484604F05BF8060000F08EFA20002900EF
:1025500005F090FC7B6A98450FD8BA6AA24201D276
:1025600098450AD001235B429A46504605B0F0BC1C
:10257000BB46B246A946A046F0BD002E11DB032E95
:10258000DDD1F2E78642BCD9434601246442E51717
:10259000002BB9D1504616F0EDFF002306009B46F4
:1025A000BAE7B246E1E7C04698180020004005406F
:1025B00010B582B068460C0000F060FA6B46062247
:1025C000991C200008F04AFA012223789343022242
:1025D0001343237002B010BD044B10B59C46080095
:1025E00003490622614408F039FA10BD8809000049
:1025F0009818002010B50A000100024804F056FCAB
:1026000010BDC0469818002070B50F4C0021200066
:1026100017F0E2FB002805D06379012B06D02000DB
:1026200017F00AFC094817F0AFFB70BD084D2B6886
:10263000002B02D000222A6098476B68002BEED056
:1026400000226A609847EAE7881800208018002076
:10265000A82B002010B510F069FE144B1A68002A50
:102660001DD013490B68002B19D0013B0B60002BC8
:1026700015D1104B1A60D0220F4B12061B7812682E
:1026800093420DD05A1E934130225B4213400B4AB5
:102690009446802263449201134302221A6010BDC3
:1026A000074B187804F024FDF9E7C0469018002085
:1026B00094180020A82B0020A8D600201C4101401F
:1026C000AED600200F4B104A10B55A60D0220F4BE7
:1026D00012061B78126893420FD05A1E9341302283
:1026E0005B4213400A4A944680226344920113439A
:1026F00002221A600021074810BD074B187804F029
:10270000F7FCF7E7A82B002055260010A8D60020DC
:102710001C41014050C30000AED6002070B5D0254A
:102720002D062B6830245A1E93411A4A02269446DD
:102730005B4223406344DB6A1E4200D170BD00222D
:102740000221182004F048FC2B685A1E9341124ABB
:102750005B429446C02223409201634413431E60AF
:102760000E4B1A680E4B1A600E4B2A681B78934268
:102770000BD05A1E93415B421C40074B9C46802362
:1027800064449B011C432660D8E7074B187804F08B
:10279000AFFCD3E7004101401C41014090180020EC
:1027A000A82B0020A8D60020AED6002010B504002B
:1027B000FDF759FD002800D010BD2100014817F099
:1027C00033FBF9E780180020D02370B51B061A6888
:1027D000404B84B040481A7005F0ECFE3F4803F0CF
:1027E00085FF012200213E4804F044FF05F0B0F9C6
:1027F000060005F011FC002304000D00394A1219EF
:102800006B41994238D835D00121029100210191C4
:1028100035493000009105F09FF9344C20600028C4
:102820003FDB8020324D40222900800104F0FEFB76
:1028300001220221182004F0CFFB0D20012104F019
:1028400045FC0BF071F8002004F0FCFE002817DBBB
:10285000FF23284C28492070184004F06FFC012108
:10286000207804F033FC2078FF2104F05DFE002086
:1028700004B070BD9042C7D901225242D317C3E7BA
:102880002668002E1DDA00220221182004F0A4FB85
:1028900080202900800104F0EBFB164C20780028F2
:1028A00002D102204042E3E7002104F00FFC20782F
:1028B000114904F05FFD207804F0B6FE0023237078
:1028C000EFE705F045F9310005F010FA01235B420E
:1028D0002360D8E7A8D60020881800209818002088
:1028E0008018002050C30000C526001034060020C8
:1028F0001D270010AED600200926001010B50122B9
:102900000221182004F068FB10BDC046D02210B58B
:102910000D4B120618600D4B12681B7893420DD0B8
:102920005A1E934130225B421340094A944680224A
:1029300063449201134302221A6010BD054B1878BC
:1029400004F0D6FBF9E7C046A82B0020A8D600204B
:102950001C410140AED6002010B5024817F04CFAD9
:1029600010BDC0468818002010B5144C6379012BA7
:1029700003D0200017F060FA10BD114B1A68002A2E
:10298000F7D0104A12681A60D0220F4B12061B783B
:10299000126893420DD05A1E934130225B4213407D
:1029A0000A4A9446802263449201134302221A6029
:1029B000DFE7074B187804F09BFBDAE78818002064
:1029C000A82B002090180020A8D600201C41014010
:1029D000AED60020F8B5040005F01EFBFA22060072
:1029E0000F00200000230021920007F08FFF8019C4
:1029F000794104000D008F4210D80DD0FDF733FC53
:102A0000002804D02000290005F010FBF8BD2000AC
:102A1000290005F0A5F9F9E78642EFD901246442BF
:102A2000E517EBE770B5060005F0F6FA3400020092
:102A30000B000025A4185D41A94210D80DD0FDF768
:102A400012FC002804D02000290005F0EFFA70BD28
:102A50002000290005F084F9F9E7A042EFD901240C
:102A60006442E517EBE7C0467047C04610B5024820
:102A700000F0E0F810BDC04620D5002010B50822B7
:102A8000014907F0EBFF10BD20D5002030B54B1EEB
:102A9000012900D1A7E0664A11780D112C003034CD
:102AA0009F2900D9A2E00470012B00D1BEE00F21C4
:102AB000147821400C003034092900DD98E044707E
:102AC000022B00D1B2E054782511290030319F2C1F
:102AD00000D990E08170032B00D1A7E00F212140A5
:102AE0000C003034092900DD87E0C470042B00D1CC
:102AF0009CE094782511290030319F2C00D97FE08B
:102B00000171052B00D191E00F2121400C003034E0
:102B1000092900DD76E04471062B00D186E0D478E7
:102B20002511290030319F2C00D96EE08171072BCF
:102B300000D17BE00F2121400C003034092966DCF4
:102B4000C471082B00D171E01479251129003031AE
:102B50009F2C5FD80172092B68D00F2121400C00F7
:102B60003034092958DC44720A2B5FD0547925117E
:102B7000290030319F2C52D881720B2B56D00F2157
:102B800021400C00303409294BDCC4720C2B4DD091
:102B900094792511290030319F2C00D90731017318
:102BA0000D2B43D00F2121400C003034092901DDC9
:102BB00037310C0044730E2B38D0D1790C11220020
:102BC00030329F2900D9073282730F2B2ED00F226B
:102BD0000A4011003731092A01DC30321100C1737B
:102BE000102B23D010300023037030BD07345AE778
:102BF00037310C0063E707316CE737310C0074E7BD
:102C000007317DE737310C0085E707318EE7373133
:102C10000C0095E707319DE737310C00A3E707313A
:102C2000AAE737310C00C4720C2BB1D1C018DAE717
:102C300020D5002030B5002589B0040009220021EC
:102C400001A8009507F004FF0922002105A80495BA
:102C500007F0FEFE4B236A466846137004A90D2256
:102C600017F09AF8152108222000694407F0F6FEB3
:102C700009B030BDEFF3108072B6034A1368002B21
:102C8000FCD0BFF35F8F70472C0100D0BFF35F8F84
:102C90000022024B1A6080F3108870472C0100D08C
:102CA00070B5EFF3108C72B60D4D2B68002BFCD075
:102CB000BFF35F8F0724CB08C618C05C01230C400C
:102CC000A3401C000440034207D103433370BFF309
:102CD0005F8F2C608CF3108870BD100005F01CFD18
:102CE0002C0100D0F8B54746CE46884680B5EFF3B4
:102CF000108C72B6214D2C68002CFCD0BFF35F8F76
:102D00009A422CD8D4080727055D061901241740DC
:102D1000BC402C421FD007210127894609E0D40876
:102D2000055D06194C4639001440A1400C002942AB
:102D300011D001329342F2D201204042BFF35F8FA3
:102D400000220E4B1A608CF3108800280FDBC0BCE9
:102D5000B946B046F8BD2C4310003470EEE7BFF31F
:102D60005F8F00232B608CF3108801204042434684
:102D7000002BECD0089805F0CFFCC0462C0100D009
:102D800030B5EFF3108C72B60A4C2368002BFCD0E0
:102D9000BFF35F8F07230122CD0819408A40435DAE
:102DA00093434355BFF35F8F002323608CF3108858
:102DB00030BDC0462C0100D0024B18688007C00F00
:102DC0007047C04600C006400021044B044ABFF3D0
:102DD0005F8F02C39342FAD17047C046000100D012
:102DE000800100D0044A1078431CDBB2172B00D9B5
:102DF000102313707047C0463806002000B5054BFD
:102E000083B00100009318221F230348FFF76AFFD5
:102E100003B000BD1CA4011050180020142310B5ED
:102E20000100188804331B88984710BD162310B57D
:102E30000100188802331B88984710BDF8B5474633
:102E4000CE4680B50F1E19D01423994604330400D2
:102E50000025012698464B461888434621681B8862
:102E6000984701C4431E9841013540420640AF4295
:102E7000F1D13000C0BCB946B046F8BD0126F8E734
:102E800010B5052005F0C4FD030C64200349584328
:102E900007F0B4F90338FDD210BDC0469A3B0000DC
:102EA000F0B54646D6464F46C0B5664E050082B0E0
:102EB000310065480AF0E8FB002809D13100634879
:102EC0000AF0E2FB002800D1B4E006225F4801E0EE
:102ED00007225D488427FF235D4C3F010021EC5110
:102EE00020602372E37122710AF0B0FB40B2A0713E
:102EF000002800DAA1E0310020680AF0F9FB40B2B6
:102F0000421D60711203C00110433023514AC8278B
:102F10000240924601225048BC46016880278B43FC
:102F20004E49BF020B600368100098430860206898
:102F3000802301009B0138310B4380214904196033
:102F40000621B846615691464B005B18DB00C3185A
:102F50009C44674642463A60CC2294469C44624672
:102F6000574617601A00C027D032BF0217603C4A8C
:102F7000DC331A604B461D2200930AF07BFC1820BC
:102F8000217903F0E5FF1D20217903F0E1FF012203
:102F90000021182003F0F4FF0121182004F008F8A4
:102FA0000622A256002053009B182268DB0094469C
:102FB0002C4A6344D8331A600AF0A6FCE071002062
:102FC0000AF0A2FCE27943B223727F2A08D80020DB
:102FD000002B05DB02B0E0BCBA46B146A846F0BD06
:102FE00084231B01EC58002C24D0062161560029B3
:102FF0000CDB0522A256531C05D0310020680AF0D4
:10300000DBFB0621615620680AF010FB07202056E2
:10301000002803DB0AF070FCFF23E3710820205630
:10302000002803DB0AF068FCFF23237284230022BC
:103030001B01EA5006204042CCE7EC59002CD4D1C9
:10304000F8E7C04654A401100000305000002050A2
:1030500044180020FFFFFF9F78C0014078D0014056
:1030600018771C2401E00000F0B557464E4645464F
:10307000DE46E0B58A469046994685B0002900D1E3
:10308000A8E084231B01C5588022D02392041B068C
:103090009A611820297903F05BFF4B46002B00D082
:1030A000A9E0012406212200695605278A402868E4
:1030B0000368934303604B005B18DB00C618CC36F3
:1030C000EF573268029394467A1C12030392C64A61
:1030D000FF01934662465B461A401300039A1A4367
:1030E0003A4332608022029B5201D033C31813430B
:1030F000802212061A601A6080235B041A000AF00C
:1031000075FB06222600AA562968131D9E4033002F
:103110000868260003430B60130008339E40330009
:103120000868072603430B6043469000DB0008183D
:10313000013B036153009B18DB00AC4ACB18D8332A
:103140001A604A460261AA4A1A601F226879024040
:103150001A60AE57A022B440A64BD205D4508022AC
:10316000A54BB701FC185204236818001040134205
:10317000FAD1A24BF602994201D08020C002A04BA6
:103180000C001E4043469A08A023DB059C4653468C
:10319000674410343B607C60BA6080223043994EB3
:1031A00052043043F86001208A600B6803430B60CF
:1031B0008B681342FCD006210122695628688A4098
:1031C00003689343036000231822009301330AF03D
:1031D00051FBE9E04B46002B00D101E184231B01A8
:1031E000C5588022D02392041B069A6118202979A1
:1031F00003F0AEFECA4601240621220069560527C7
:103200008A4028680368934303604B005B18DB0027
:10321000C618CC36EF573268029394467A1D1203D3
:103220000392714AFF01934662465B461A401300BF
:10323000039A1A433A4332608022029B5201D033F0
:10324000C3181343802212061A601A6080235B049D
:103250001A000AF0CBFA06232100EB562E689C4692
:10326000043399400B0032682100134333606346F6
:10327000083399400B00326840461343336062467E
:1032800043469200DB00B218013B136163465B00CA
:103290006344DB005549F318D83319600E99A02711
:1032A000091AC90001391161514AFF051A601F222C
:1032B00069790A401A600723EB561A009C404D4B6F
:1032C0009101FC5014008022A3464B4B5204C818B5
:1032D00003681342FCD15846082201230290AA56E3
:1032E000444893403B50930118008346039302984F
:1032F000414B80245B4483466404186807002740E0
:103300002042FAD15B463D48DB02864265D08027E9
:10331000C024FF02E4023A48D20203401F43394B63
:1033200002401F4343469B080293A023DB059B46B4
:10333000534659440B6010239A46B244534630001A
:103340004B60029B22438B60CF602F4920300A43A1
:103350000E998908CB1A039959440860484640449D
:1033600048608B60CA60012361468B40326813431A
:1033700033600722254B80219C46AA5649049201BE
:10338000624413680B42FCD10822204B80219C46EA
:10339000AA5649049201624413680B42FCD10021F1
:1033A0004246484607F054FB062169562B684A00FE
:1033B0005218D2009B18164AD8331A60D0238022A4
:1033C0001B0692045A61FFF75BFD002005B0F0BCBC
:1033D000BB46B246A946A046F0BD8024A4029AE7A7
:1033E00005204042F2E7C0467F00FEFF206000005B
:1033F00040600000440400000C0000500000205019
:10340000FD7F00FF1900400029004000100000501F
:1034100003A0000010B5172003F03AFED02480234B
:1034200024061B04002201216362172003F0A8FD7B
:10343000182003F02DFE80235B0463621920A36132
:1034400003F026FE80239B046362636110BDC046C7
:1034500070B5D024802524062D04A561142004F025
:10346000EDFC6561FA2004F0E9FC182003F010FE81
:1034700080235B04A36270BD002300B585B0039375
:103480000A4BD2021A40082309070A43084900934D
:10349000114302AB49BA042202910021FFF7E4FD77
:1034A000002801D1039840BA05B000BD00F8FF0F15
:1034B0000400004010B586B0012916D0154BD20289
:1034C0001A40082309070A43134903AC0A4303922D
:1034D0000093042223000021FFF7C6FD01230028EA
:1034E00001D19B00E05806B010BD0A4BD2021A4031
:1034F0000A4B03AC1A430C230392009304222300CB
:103500000021FFF7B1FD0028EDD102239B00E05818
:10351000E9E7C04600F8FF0F040000400800005033
:1035200010B586B0012916D0154BD2021A400823D7
:1035300009070A43134903AC0A4303920093042288
:1035400023000021FFF790FD0123002801D19B00FB
:10355000E05806B010BD0A4BD2021A400A4B03AC29
:103560001A430C2303920093042223000021FFF747
:103570007BFD0028EDD102239B00E058E9E7C0461F
:1035800000F8FF0F020000400600005010B586B0A2
:10359000012916D0154BD2021A40082309070A4305
:1035A000134903AC0A430392009304222300002131
:1035B000FFF75AFD0123002801D19B00E05806B017
:1035C00010BD0A4BD2021A400A4B03AC1A430C231B
:1035D00003920093042223000021FFF745FD0028F9
:1035E000EDD102239B00E058E9E7C04600F8FF0F49
:1035F0000100004005000050F0B55BBAD6464F46CA
:103600004646C0B584B003938423614CD202224065
:1036100009070A435F491B01C4581143D02349BA23
:10362000802201261B06920402919A6118202179BA
:1036300003F08EFC062132006156CC278A402068B8
:10364000BC460368544F934303600523E35602AD21
:1036500098464B005B18DB00C2189444624612681F
:10366000D033914642460132120392464A461740F1
:1036700052463A434746FF013A4367463A60802242
:10368000C31852011343802212061A601A60802365
:103690005B041A000AF0AAF8062137006156226876
:1036A0000B1D9F403B0010683700034313600B0065
:1036B00008339F403B0010680727034313603F23F4
:1036C0008800101803614B005B18DB003349D318E6
:1036D000D833196000210161314919601F216079D7
:1036E00001401960E757A021BE402E4BC905CE50BE
:1036F000BB019C4680212C4E490466443368180067
:1037000008400B42FAD1294BFF029A4201D0802097
:10371000C002274B11001F40A023DB05634410317A
:103720001D6059600221996080213843214F49046E
:103730003843D86001209160136803431360936895
:103740000B42FCD006210122615620688A400368A2
:103750009343036000231822009301330AF08AF890
:103760000621615623684A005218D2009B18124A5B
:10377000D8331A60D02380221B0692045A61FFF7C7
:103780007FFB002004B0E0BCBA46B146A846F0BDBD
:1037900000F8FF0F040000C07F00FEFF2060000063
:1037A00040600000440400000C0000500000205065
:1037B000FD7F00FF1900400003A00000F0B5D646D1
:1037C0004F464646C0B5694CD20222400C07224300
:1037D000674C84B0224302AD02926B6001290AD18A
:1037E00008246449445064494250644A8350852304
:1037F00082681B01C25084231B01C4588022D0233D
:1038000001261B0692049A611820217903F0A0FB7F
:10381000062132006156CC278A402068BC460368E6
:10382000574F934303600523E35698464B005B18BC
:10383000DB00C218944462461268D0339146424677
:103840000132120392464A46174052463A434746CF
:10385000FF013A4367463A608022C318520113437E
:10386000802212061A601A6080235B041A0009F095
:10387000BDFF06213700615622680B1D9F403B00AB
:1038800010683700034313600B0008339F403B0070
:1038900010680727034313603F2388001018036153
:1038A0004B005B18DB003749D318D833196000216F
:1038B0000161354919601F21607901401960E7579E
:1038C000A021BE40314BC905CE50BB019C46802192
:1038D0002F4E490466443368180008400B42FAD161
:1038E0002C4BFF029A4201D08020C0022A4B1100CB
:1038F0001F40A023DB05634410311D605960022185
:10390000996080213843254F49043843D86001200D
:10391000916013680343136093680B42FCD0062147
:103920000122615620688A400368934303600023A4
:1039300018220093013309F09DFF06216156236888
:103940004A005218D2009B18154AD8331A60D02367
:1039500080221B0692045A61FFF792FA002004B0FD
:10396000E0BCBA46B146A846F0BDC04600F8FF0F1D
:10397000040000C04C080000440800004808000093
:103980007F00FEFF20600000406000004404000053
:103990000C00005000002050FD7F00FF1900400087
:1039A00003A00000F0B5D6464F464646C0B5694C68
:1039B000D20222400C072243674C84B0224302AD5E
:1039C00002926B6001290AD1082464494450644979
:1039D0004250644A8350852382681B01C25084236D
:1039E0001B01C4588022D02301261B0692049A6131
:1039F0001820217903F0ACFA062132006156CC2759
:103A00008A402068BC460368574F934303600523F0
:103A1000E35698464B005B18DB00C218944462469C
:103A20001268D033914642460132120392464A460A
:103A3000174052463A434746FF013A4367463A60C9
:103A40008022C31852011343802212061A601A60A2
:103A500080235B041A0009F0C9FE06213700615675
:103A600022680B1D9F403B00106837000343136022
:103A70000B0008339F403B00106807270343136087
:103A80003F238800101803614B005B18DB003749A7
:103A9000D318D833196000210161354919601F21FD
:103AA000607901401960E757A021BE40314BC9053C
:103AB000CE50BB019C4680212F4E4904664433689A
:103AC000180008400B42FAD12C4BFF029A4201D059
:103AD0008020C0022A4B11001F40A023DB05634455
:103AE00010311D6059600221996080213843254FB3
:103AF00049043843D8600120916013680343136080
:103B000093680B42FCD006210122615620688A404E
:103B1000036893430360002318220093013309F0E4
:103B2000A9FE0621615623684A005218D2009B184C
:103B3000154AD8331A60D02380221B0692045A619A
:103B4000FFF79EF9002004B0E0BCBA46B146A84693
:103B5000F0BDC04600F8FF0F020000C04C08000096
:103B600044080000480800007F00FEFF20600000BD
:103B700040600000440400000C0000500000205091
:103B8000FD7F00FF1900400003A00000F0B5D646FD
:103B90004F464646C0B5694CD20222400C0722432C
:103BA000674C84B0224302AD02926B6001290AD1B6
:103BB00008246449445064494250644A8350852330
:103BC00082681B01C25084231B01C4588022D02369
:103BD00001261B0692049A611820217903F0B8F996
:103BE000062132006156CC278A402068BC46036813
:103BF000574F934303600523E35698464B005B18E9
:103C0000DB00C218944462461268D03391464246A3
:103C10000132120392464A46174052463A434746FB
:103C2000FF013A4367463A608022C31852011343AA
:103C3000802212061A601A6080235B041A0009F0C1
:103C4000D5FD06213700615622680B1D9F403B00C1
:103C500010683700034313600B0008339F403B009C
:103C600010680727034313603F238800101803617F
:103C70004B005B18DB003749D318D833196000219B
:103C80000161354919601F21607901401960E757CA
:103C9000A021BE40314BC905CE50BB019C468021BE
:103CA0002F4E490466443368180008400B42FAD18D
:103CB0002C4BFF029A4201D08020C0022A4B1100F7
:103CC0001F40A023DB05634410311D6059600221B1
:103CD000996080213843254F49043843D86001203A
:103CE000916013680343136093680B42FCD0062174
:103CF0000122615620688A400368934303600023D1
:103D000018220093013309F0B5FD0621615623689E
:103D10004A005218D2009B18154AD8331A60D02393
:103D200080221B0692045A61FFF7AAF8002004B013
:103D3000E0BCBA46B146A846F0BDC04600F8FF0F49
:103D4000010000C04C0800004408000048080000C2
:103D50007F00FEFF2060000040600000440400007F
:103D60000C00005000002050FD7F00FF19004000B3
:103D700003A00000F0B5C64600B504001D0082B0E7
:103D800001292ED01F0018230120984600261A4B27
:103D9000D2021A4009073A430A4380210430C90578
:103DA00080000A432018426003224346E91C9143E5
:103DB00004318919009120000021E3180132FFF736
:103DC00053F9061E13D12100089B1C31994203D0E0
:103DD0002A00180006F042FE300002B080BCB8464F
:103DE000F0BD1F1D1423002098460426CFE70100D4
:103DF000024807F03DF8EFE700F8FF0F38A4011084
:103E0000F0B54E464546DE46574691469846DA1C82
:103E10000323E0B59A4389B005000E0003920229FE
:103E200024D02800129B1C3098423FD019004346F2
:103E300036071E434B46244ADF0217403E43C02745
:103E40003F063E434246AE6106F008FE29000023CD
:103E5000039A2800043218310093FFF705F909B0DE
:103E6000F0BCBB46B246A946A046F0BD174B202782
:103E70009B460823164C9A4601E0013C10D35B4652
:103E800005935346042200930021280005ABFFF759
:103E9000EBF8002800D106980742EED0002CC0D1E4
:103EA0000C4806F043FF06204042D8E74B46DF02AD
:103EB0004346054A360717401E433E43C0273F0688
:103EC0003E43AE61C2E7C04600F8FF0F0440004029
:103ED000E703000054A60110836870B5CC0B050001
:103EE000E403A3420BD063401A0E19D1FF2212043F
:103EF00013420CD1FF221202134201D1AC6070BDFB
:103F0000012128000A4A230AFFF740FEF6E7230CA6
:103F100001212800074AFFF739FEAB686340E9E753
:103F2000230E0121044AFFF731FEAB686340DDE751
:103F30000A0001000B0001000C000100F0B5C646AC
:103F4000033083089C4600B58E1E002B1DD00B004D
:103F500033435B0754D16346013B0A2B50D9C30856
:103F60009846424630000B00D2008F1830CB30C04C
:103F70009F42FBD14346B4185F008A18BC4504D069
:103F8000538810881B040343236008000B888A1D94
:103F90005BBA73808B1C1B680A301BBA7360126893
:103FA00012BAB260006800BAF060452B03D030004E
:103FB00080BCB846F0BD082AF9D10B000A000C00FD
:103FC000B232AE331B8810682E3425691A18AA4203
:103FD00022D83A31C918081881424AD20027002550
:103FE00004E0DD2A1CD0C91888422CD94B78023352
:103FF000CA189042F7D30A78302AF2D10D00F2E7BE
:104000006346320098003018938854881B04234379
:1040100008C28242F8D1B8E701235B42B360C6E729
:104020008A1C90468A78002ADDD142465278502A6E
:10403000D9D142469278F22AD5D14246D278012A85
:10404000D1D10F00CFE7002D10D006230422002F7E
:104050000AD0A28BD20601D5012213438422B15C7F
:10406000B1520432B354A2E71300F2E70223002254
:10407000EDE70023EDE7C046F8B5CE46474605001C
:10408000894680B5002932D001230121204AFFF75B
:104090007DFD0123012128001D4AFFF777FD032341
:1040A00003279846012640240BE00120FEF792FCEE
:1040B000013C330001212800154AFFF767FD002C61
:1040C00010D001212800124AFFF760FA0028ECDB2B
:1040D0003B0003404345E8D1FF28E6D0C0BCB946C9
:1040E000B046F8BD49460B4806F0C2FEF6E700238D
:1040F0000121074AFFF74AFD002301212800044A55
:10410000FFF744FD0023012798460026CBE7C04671
:104110001F00010068A40110F0B5D6464F46464680
:10412000C0B5C37C05000F00924682B0002B04D1BD
:10413000006802F011FB002865D0280002F012FB95
:10414000AB7C002B05D101212800FFF795FF01234F
:10415000AB74EB7C002B64D0FA24A40002E0013C99
:10416000002C50D0082200212800FFF7A3F9431C9F
:10417000F5D0C30545D5C02203035B0D591ED200FF
:10418000914200D3B7E0820700D5B4E02C001C3484
:104190000022022128000094FFF7ECFD002828D11E
:1041A000AB8BEA8B002B2AD00121E97466498C463F
:1041B00019005140614500D0A4E0D24392B293422D
:1041C00000D0A6E00B2B00D8A9E02422AA5CAA7399
:1041D0002122A95C123A0A40022A17D90C2B00D1DD
:1041E000A9E0012A5BD0022A36D0002A47D00B2052
:1041F000404202B0E0BCBA46B146A846F0BD002A33
:10420000D2D10023EB7401204042F2E72521695C02
:104210008C466646697B711AC9B21429DED86E7362
:10422000DCE7042200212800FFF77AF983B29846E0
:10423000464B000499461B88040C434502D0862354
:1042400023424DD14346002B4FD14B4642461A8064
:10425000A30600D580E7D6E7102B69D92322A95CF5
:1042600002206118CA78920004328A18141B1C1BA1
:104270008B78DB071C4353463C601A60B9E71B2B65
:104280005FD92332AA5C2D8AA21851898D424CD164
:104290001032141B1C1B53463C601A60A9E7102BFC
:1042A0004CD92322AA5CA218D17889000431521873
:1042B000117B141B1B1B882934D1517B6C2931D1F4
:1042C000D17C002928D1117D102925D1517D1829B3
:1042D00022D1183B3B605346183201201A6088E710
:1042E00021001B4806F0C4FDACE704220021280091
:1042F000FFF758FBA9E7012301212800154AFFF722
:1043000045FC7EE71900144806F0B2FD012040424A
:104310006FE7022040426CE70A20404269E7032031
:10432000404266E70920404263E70620404260E7DA
:10433000072040425DE7042040425AE708204042FF
:1043400057E70520404254E7FFFF000096D60020C3
:104350008CA401100D000100B8A40110F0B5DE46D8
:1043600057464E4645460400E0B585B09A46894614
:10437000934602F0F7F9A37C002B05D10121200020
:10438000FFF77AFE0123A374A37B002B24D02C4ECD
:104390002C4FB36A98460EE0A17B002903D1207B05
:1043A000637B83421CD14346ED1ABD423FD8FA20BD
:1043B0008000FEF7FBF9200003AA02A9B56AFFF707
:1043C000ABFE0128E8D103990298FFF7B7FD010081
:1043D000200002F0CDF9DFE7207B637B8342D6D05B
:1043E0005B4651460C339AB20A80D24308714A8028
:1043F000524649465171002251468A714946023956
:104400004D426941554649000C310130E9712A811C
:104410006A8102212073002220000095FFF7F0FC42
:1044200005B0F0BCBB46B246A946A046F0BD637BD2
:10443000227B054806F01CFD01204042F0E7C04603
:104440000040054040420F00E4A40110F0B545468D
:1044500057464E46DE4692461A0098468023E0B5FF
:104460001C320500894683B01B019A421ED8524671
:10447000826242461204038A120CC2620D9A013310
:104480009BB2120303820A431B04134303630023FA
:10449000424643630C99383006F0E0FA2B0042465E
:1044A000002128001C331032FFF758FF274E284AFE
:1044B000B76AB36ADB1B93422ED8264B9B4610E0AB
:1044C000022820D0002803DB0100584606F0D0FC6B
:1044D000FA208000FEF76AF9B36A1D4ADB1B93429B
:1044E0001AD86946280001AAFFF716FE041E23D039
:1044F0000128E5D101990098FFF720FD010028006F
:1045000002F036F9E4E70099019B4A002868520856
:10451000C90F02F027F8DBE743465246494601241B
:104520000D4806F0A5FC6442200003B0F0BCBB4679
:10453000B246A946A046F0BD009A424500D942467F
:1045400001990C9815F088FCEEE7C0460040054044
:104550003F420F0008A5011034A50110F0B54546F3
:1045600057464E46DE4692461A0098468023E0B5EE
:104570001C320500894683B01B019A421BD8524663
:10458000038A826201339BB2038242461B040B43BF
:10459000036300231204120CC262436342460C9967
:1045A000383006F05BFA2B004246002128001C330D
:1045B0001032FFF7D3FE274E274AB76AB36ADB1BD8
:1045C00093422ED8254B9B4610E0022820D000288D
:1045D00003DB0100584606F04BFCFA208000FEF792
:1045E000E5F8B36A1C4ADB1B93421AD869462800D7
:1045F00001AAFFF791FD041E23D00128E5D10199FE
:104600000098FFF79BFC0100280002F0B1F8E4E7F6
:104610000099019B4A0028685208C90F01F0A2FFC7
:10462000DBE743465246494601240D4806F020FC8C
:104630006442200003B0F0BCBB46B246A946A04687
:10464000F0BD009A424500D9424601990C9815F0F8
:1046500003FCEEE7004005403F420F0008A50110B3
:1046600034A50110F8B5CE46474604000D0080B5CC
:10467000012900D1D4E1D04B90279846FF01C026F4
:1046800041462000FFF728FC3A0001212000FEF7F8
:104690007DFFA3687605B34210D073401A0E00D098
:1046A000DBE0FF221204134200D0E3E0FF221202FB
:1046B000134200D0EEE0C0235B05A360414620001A
:1046C000FFF70AFC3A0001212000FEF75FFFC0223D
:1046D000A368520506009146934210D053401A0E2B
:1046E00000D093E1FF221204134200D082E1FF22A6
:1046F0001202134200D075E1C0235B05A360F307EB
:1047000000D495E1012D00D18FE1AC4DAC4E3100CC
:104710002000FFF7E1FB03232A0001212000FFF71F
:1047200035FAC022A36852059146934210D05340F7
:104730001A0E00D04CE1FF221204134200D02EE1E9
:10474000FF221202134200D021E1C0235B05A360C7
:1047500031002000FFF7C0FB2A0001212000FEF7F6
:1047600015FFC022A36852059146934210D05340D2
:104770001A0E00D001E1FF221204134200D0F0E033
:10478000FF221202134200D0E3E0C0235B05A360C6
:1047900041462000FFF7A0FB3A00C027002301217B
:1047A0002000FFF7F3F9A3687F05BB4210D07B40E0
:1047B0001A0E00D0C4E0FF221204134200D0B3E06E
:1047C000FF221202134200D0A6E0C0235B05A360C3
:1047D000C0270120FEF7FEF831002000FFF77CFB28
:1047E00001232A0001212000FFF7D0F9A3687F05EB
:1047F000BB420FD07B401A0E00D084E0FF2212048F
:10480000134200D073E0FF221202134267D1C0238B
:104810005B05A36031002000FFF75EFB2A00C02586
:1048200001212000FEF7B2FEA3686D05AB420DD05A
:104830006B401A0E4AD1FF22120413423AD1FF22D2
:10484000120213422ED1C0235B05A3600120FEF7A4
:10485000C1F8C0BCB946B046F8BD1823594A012179
:104860002000FFF793F9FF22A3681204734013425C
:1048700000D11BE7C023544A5B0101212000FFF750
:1048800085F9C023A2685B055340FF221202134240
:1048900000D110E7C023012120004C4A5B03FFF741
:1048A00075F908E7C02301212000484A5B03FFF7A0
:1048B0006DF9C8E7C023444A5B0101212000FFF7DE
:1048C00065F9C023A2685B055340B8E718230121AE
:1048D00020003C4AFFF75AF9A3686B40ABE7C023BE
:1048E00001212000394A5B03FFF750F98FE7C0230D
:1048F000354A5B0101212000FFF748F9C023A26877
:104900005B0553407FE71823012120002D4AFFF764
:104910003DF9A3687B4071E7C023012120002B4AA9
:104920005B03FFF733F950E7C023274A5B010121FE
:104930002000FFF72BF9C023A2685B0553403FE737
:104940001823012120001F4AFFF720F9A3687B40AC
:1049500031E7C023012120001C4A5B03FFF716F951
:1049600013E7C023184A5B0101212000FFF70EF96D
:10497000C023A2685B05534002E71823114A0121B6
:104980002000FFF703F94B46A2685340F3E6C0232B
:10499000012120000D4A5B03FFF7F8F8D5E6C0239C
:1049A000094A5B0101212000FFF7F0F8C023A2684B
:1049B0005B055340C4E6C046004810180844000098
:1049C000084410180C0001000B0001000A0001004F
:1049D0001823194A01212000FFF7D8F84B46A26896
:1049E0005340A8E6C02301212000144A5B03FFF7CF
:1049F000CDF881E6C023124A5B0101212000FFF7B8
:104A0000C5F8C023A2685B05534070E618230A4A24
:104A100001212000FFF7BAF84B46A268534061E637
:104A2000E027084BBF01984629E6074D074E6EE682
:104A3000074806F07BF965E60C0001000A0001005A
:104A40000B0001000038101808340000083410185A
:104A500060A501108022520082818422002312016D
:104A600001608360837303618350704770B51400E5
:104A700004AA2600050018001378802212361201BD
:104A800096421FD82A222026AE542A0000262A3217
:104A900056709170D670002B0DD1010028002200B5
:104AA0002E3005F0DBFF2B00022128001C33A21D55
:104AB000FFF754FC70BD29000023A2B22E310AF08A
:104AC000B3F8F0E705204042F4E7C04630B50400F3
:104AD000174D83B06946200001AAFFF71DFB0100B6
:104AE000431C10D0031DF5D0012817D002280CD08C
:104AF000280006F0BDF96946200001AAFFF70CFB6B
:104B00000100431CEED103B030BD0099019B4A0067
:104B100020685208C90F01F025FDDBE701990098D4
:104B2000FFF70CFA0100200001F022FED2E7C04698
:104B30007CA5011030B50224150083B04A08490055
:104B40002140069C009301942B00FFF77FFC03B0EB
:104B500030BDC04610B50400002909D0837C002B6D
:104B600000D110BD002300218374FFF785FAF8E718
:104B700001F0F8FDA37C002BF3D101212000FFF709
:104B80007BFA0123A374ECE7F0B54E46DE465746A8
:104B90004546E0B5BE4B87B09B6A0400436089463A
:104BA000FEF77EF9002812D1FEF734FC0A25FEF745
:104BB0004FFCB84E142200212000FEF75DFCB042ED
:104BC00013D00120013DFDF705FF002DF2D1B248C1
:104BD00006F0ACF806235B429846404607B0F0BCAE
:104BE000BB46B246A946A046F0BD002200212000E7
:104BF000AA4BFEF701FD0028E9D100220021200088
:104C0000FEF758FC04231D2200212000FEF7BEFF02
:104C10000028DCD19923042200212000FEF7B6FFF2
:104C20000028D4D1BE23062200212000FEF7BAFEC0
:104C30008046031ECBD101212000994A0833FEF79C
:104C4000A5FF0A25402601212000954AFEF79EFC7B
:104C500006420CD10120013DFDF7BCFE002DF2D132
:104C6000904806F063F806235B429846B5E70023B8
:104C70008B4A01212000FEF789FF20008A49FFF7B7
:104C80002BF9E022C025012120009201FEF77EFCD5
:104C9000A3686D05AB4213D06B401A0E01D000F033
:104CA00017FDFF221204134201D000F004FDFF2281
:104CB0001202134201D000F0F5FCC0235B05A36093
:104CC00020007949FFF708F9E02201212000920134
:104CD000FEF75CFCC026A36805007605B34213D03E
:104CE00073401A0E01D000F0D3FCFF2212041342CD
:104CF00001D000F0C0FCFF221202134201D000F0EC
:104D0000B1FCC0235B05A360EB0701D400F077FD85
:104D100020006649FFF7E0F89022C025012120001D
:104D2000D201FEF733FCA3686D05AB4213D06B4094
:104D30001A0E01D000F08CFCFF221204134201D0A5
:104D400000F079FCFF221202134201D000F06AFC4D
:104D5000C0235B05A36020005449FFF7BDF89022F3
:104D600001212000D201FEF711FCC026A368050036
:104D70007605B34213D073401A0E01D000F048FC00
:104D8000FF221204134201D000F035FCFF22120270
:104D9000134201D000F026FCC0235B05A360EB07A3
:104DA00001D400F036FDC02502212000FFF75AFC97
:104DB000A3686D05AB4212D06B401A0E01D000F013
:104DC00007FCFF221204134201D000F0F4FBFF2283
:104DD0001202134200D0E5E3C0235B05A360C025A7
:104DE000032301212000324AFEF7E8FCA3686D0589
:104DF000AB4210D06B401A0E00D0CAE3FF2212045F
:104E0000134200D0B9E3FF221202134200D0ACE3F8
:104E1000C0235B05A360C025002301212000254A93
:104E2000FEF7CCFCA3686D05AB4210D06B401A0EA8
:104E300000D091E3FF221204134200D080E3FF224E
:104E40001202134200D056E3C0235B05A3601A4B45
:104E50001A499B461A4B1B4A59444E785B449A5C4C
:104E600036021643FA225200964201DB00F0CCFCD7
:104E7000154A9B5C002B01D000F0C6FC502E01DCD3
:104E800000F0C2FC114B124F50259A465F4426E0B9
:104E900000400540ADBEEDFEA0A50110B304020028
:104EA0000E00010008A60110003810180048101864
:104EB00010C0000044C00000D8B50110AC6B030066
:104EC0009E6803000E0300000D030000C0A5011042
:104ED000AB6B03000135AE4201DC00F095FC09220A
:104EE0005146781B14F074FB0028F3D140235B4239
:104EF0005B4400279A463D00A368EE0B4037F6035B
:104F00009E420ED073401A0E00D026E2FF221204F9
:104F1000134200D02EE2FF221202134200D015E20B
:104F2000A66053466A04DB19009301214023200048
:104F3000520CFEF765FF002803D1DB239B029F4242
:104F4000D9D1C0239B0000269A46794F794D0DE0B8
:104F5000FEF7C2FF6A04002301212000520C0097D3
:104F6000FEF74EFF002814D1403540374036290067
:104F700020005645ECD8FEF7AFFF6A04402301211C
:104F80002000520C0097FEF73BFF002801D1564548
:104F9000EAD1F025A368ED02AB4210D06B401A0EA7
:104FA00000D09FE2FF221204134200D08FE2FF22C2
:104FB0001202134200D082E2F023DB02A360C0257C
:104FC0005D4B012120005D4AFEF7F8FBA3686D05EB
:104FD000AB4210D06B401A0E00D067E2FF221204E1
:104FE000134200D056E2FF221202134200D049E2DF
:104FF000C0235B05A36001212000FFF733FB2000E5
:105000004F49FEF769FF012120004E4AFEF7BEFA24
:10501000C026A36805007605B34210D073401A0E6F
:1050200000D026E2FF221204134200D015E2FF2234
:105030001202134200D008E2C0235B05A3600320E4
:105040002840012802D0404805F070FE20003F496A
:10505000FEF742FFE022012120009201FEF796FABE
:10506000C026A36805007605B34210D073401A0E1F
:1050700000D0E1E1FF221204134200D0D0E1FF2270
:105080001202134200D0C3E1C0235B05A360EB070B
:1050900000D5B9E1FA258026AD0006E00120013DEA
:1050A000FDF798FC002D00D16AE301212000284A79
:1050B000FEF76CFA0642F1D0C025A3686D05AB423D
:1050C00010D06B401A0E00D051E3FF22120413429D
:1050D00000D040E3FF221202134200D033E3C0238A
:1050E0005B05A360C025F02301212000194AFEF7CB
:1050F00065FBA3686D05AB4210D06B401A0E00D063
:1051000018E3FF221204134200D007E3FF22120229
:10511000134200D0FAE2C0235B05A360FA252023E6
:10512000012120000C4AFEF731FD2026AD001CE0D5
:105130001CA80110FCFC0700C0003FFFFCFF0000A2
:105140000834101808340000F4A5011000381018B5
:105150000E00010024A00000080001000120013D14
:10516000FDF738FC002D00D112E3082200212000B9
:10517000FEF7A0F90642F1D00121E34A2000FEF734
:1051800005FAC3B2022001210343DF4A2000FEF7E3
:10519000FDFC0823F02200212000FEF7F7FC02238B
:1051A0000121DA4A2000FEF7F1FC01212000D84A53
:1051B000FEF7ECF9C30700D49FE20F230121D54A83
:1051C0002000FEF7E3FC00230121D24A2000FEF775
:1051D000DDFC0121CF4A2000FEF7D8F9042200218E
:1051E0002000FEF79DF9C30700D57FE2C025A36824
:1051F0006D05AB4210D06B401A0E00D0FBE0FF22D1
:105200001204134200D0EAE0FF221202134200D03F
:10521000DDE0C0235B05A360C02501212000BE4A5C
:10522000FEF748F9A3686D05AB4210D06B401A0E2B
:1052300000D0C3E0FF221204134200D0B2E0FF22EC
:105240001202134200D0A5E0C0235B05A36020003A
:1052500001F088FAA37C002B00D194E0AF4F250029
:105260003900383508220831280005F0F7FBAC4B2F
:10527000F622DB212364200000239200890262646D
:10528000A36459444C3005F0E9FBFC2308229B0041
:105290000221FF3220000095FFF760F93900132248
:1052A0001431280005F0DAFB8322132300212000AB
:1052B00000955200FFF752F9A36B002B00D011E2CA
:1052C0000B229849280005F0C9FB00264323082239
:1052D000E6540133E6540133E65401330221E65427
:1052E000FF32373B200001960095FFF7AFF806220A
:1052F0008D49280005F0B2FB3E230122E25408222A
:105300000133E6540133E6540133E6540221373BBE
:10531000200001960095FF32FFF798F84B46002BCE
:1053200000D13DE2200049460622463014F094FDAB
:105330000E2228007D4905F091FB0822142302214A
:1053400020000095FF32FFF709F946E40121200013
:10535000774A330AFEF71AFCE2E50023754A012179
:105360002000FEF713FCFF22A368120473401342CF
:1053700000D1D0E5330C012120006F4AFEF706FC76
:10538000A3687340C7E501212000FEF775FE0123E5
:10539000A37463E7C02301212000654A5B03FEF785
:1053A000F5FB51E7C023644A5B0101212000FEF7B1
:1053B000EDFBC023A2685B05534040E718230121A1
:1053C00020005C4AFEF7E2FBA3686B4032E7C02393
:1053D00001212000564A5B03FEF7D8FB19E7C023E2
:1053E000554A5B0101212000FEF7D0FBC023A268D3
:1053F0005B05534008E71823012120004D4AFEF7C2
:10540000C5FBA3686B40FAE64C4805F08FFC41E60B
:10541000C02301212000464A5B03FEF7B7FB33E6B9
:10542000C023454A5B0101212000FEF7AFFBC023EA
:10543000A2685B05534022E61823012120003D4A63
:10544000FEF7A4FBA368734014E6C02301212000EB
:10545000374A5B03FEF79AFBEEE5C023364A5B0151
:1054600001212000FEF792FBC023A2685B05534098
:10547000DDE51823012120002E4AFEF787FBA368F3
:105480007340CFE5C02301212000294A5B03FEF7CA
:105490007DFBADE5C023284A5B0101212000FEF71A
:1054A00075FBC023A2685B0553409CE518230121CE
:1054B0002000204AFEF76AFBA3686B408EE5F023CC
:1054C000012120001A4ADB00FEF760FB74E5072388
:1054D000194A01212000FEF759FBF023A268DB02E4
:1054E000534064E5002301212000124AFEF74EFBE1
:1054F000A3686B4056E5C023012120000C4A5B03E2
:10550000FEF744FBA0E4C0461E0001000E000100AF
:105510001F0001000F00010008850000A8A701106E
:10552000061002007CA6011088A6011090A60110AA
:105530000A0001000C0001000B000100F4A501109D
:10554000C023B64A5B0101212000FEF71FFBC023E8
:10555000A2685B05534072E4182301212000B04A81
:10556000FEF714FBA3686B4064E4C0230121200014
:10557000AC4A5B03FEF70AFB4AE4C023A74A5B017F
:1055800001212000FEF702FBC023A2685B05534007
:1055900039E4182301212000A14AFEF7F7FAA36895
:1055A0006B402BE4C023012120009E4A5B03FEF7E1
:1055B000EDFAFFF711FCC023984A5B01012120009E
:1055C000FEF7E4FAC023A2685B055340FFF7FFFB38
:1055D000182301212000924AFEF7D8FAA3686B40F5
:1055E000FFF7EFFBC023012120008E4A5B03FEF78B
:1055F000CDFAFFF7D1FBC023884A5B0101212000CF
:10560000FEF7C4FAC023A2685B055340FFF7BEFB58
:10561000182301212000824AFEF7B8FAA3687340DC
:10562000FFF7AEFBC023012120007E4A5B03FEF79B
:10563000ADFAFFF78DFBC023784A5B010121200002
:10564000FEF7A4FAC023A2685B055340FFF77AFB7C
:10565000182301212000724AFEF798FAA3686B40D4
:10566000FFF76AFBC023012120006E4A5B03FEF7AF
:105670008DFAFFF746FBC023684A5B010121200039
:10568000FEF784FAC023A2685B055340FFF733FBA3
:10569000182301212000624AFEF778FAA3687340BC
:1056A000FFF723FBC023012120005E4A5B03FEF7C6
:1056B0006DFAFFF702FBC023584A5B01012120006D
:1056C000FEF764FAC023A2685B055340FFF7EFFAC8
:1056D000182301212000524AFEF758FAA3686B40B4
:1056E000FFF7DFFA504805F0C3FBE9E583B2042277
:1056F00000212000FEF756F978E5C3B20120012110
:1057000003434A4A2000FEF741FA56E5C02301212F
:105710002000444A5B03FEF739FAFCE4C0233F4A09
:105720005B0101212000FEF731FAC023A2685B056E
:105730005340EBE4182301212000394AFEF726FAF2
:10574000A3686B40DDE4C02301212000354A5B03E0
:10575000FEF71CFAC3E4C023304A5B01012120009C
:10576000FEF714FAC023A2685B055340B2E4182385
:10577000012120002A4AFEF709FAA3686B40A4E43D
:105780002B4805F0D3FA06235B429846FFF725FA2B
:10579000284805F0CBFA06235B429846FFF71DFA2E
:1057A0006A463900BB6A30310493BB8D280093826E
:1057B000142205F053F983221423002120000095C0
:1057C0005200FEF7CBFE002806D0002002A9FCF70D
:1057D000EFFE02AB9946A5E50622290002A805F0D6
:1057E0003DF9029B049A934203D000239846FFF7A9
:1057F000F4F96B469A899B8A9A42F6D1E5E70E48FE
:1058000005F094FAFFF784FA0C4805F08FFAFFF7D9
:1058100098FB094805F08AFAFFF7C5FA0B0001006A
:105820000C0001000A00010064A601101F00010025
:1058300034A601104CA6011060A50110CCA50110E2
:10584000F0B5DE464E4645465746E0B506000D002B
:105850009B493836040008224831300083B005F0F7
:10586000FDF840222B04E9B2A1541B0E0132A354CF
:1058700042200022225401302254280C00D00EE194
:10588000FF3244302254013022540130225401307E
:1058900022544822A154914601320025A354904637
:1058A0004A274B2308220221FF32E5552000E55408
:1058B0000096373BFEF752FE3220FDF78BF8382377
:1058C000E5540133E5540133E5540133402202210C
:1058D000E5542000373B0096FEF740FE0B22794945
:1058E000300005F0BBF84322A5549346924601329E
:1058F000A5544521462008220F236554FF32255424
:105900004339200001950096FEF7A0FD06226E495E
:10591000300005F0A3F83E230122E25408220133AF
:10592000E5540133E55401330221E554FF32373B9E
:10593000200001950096FEF789FD0F226349300093
:1059400005F08CF847230822E2544B460822E55420
:1059500043460221E554FF32363B2000E5550195D0
:105960000096FEF773FD0B225949300005F076F8DA
:1059700004235246A3540132A5544521462008224F
:1059800065540B332554FF324339200001950096AE
:10599000FEF75CFD10224F49300005F05FF84A46E3
:1059A000A55442464B23A55408220221E555FF3257
:1059B000E5542000373B01950096FEF747FD464B26
:1059C00060689B6A454AA344191A914200D870E066
:1059D00020001322FF214E3005F03AF85023E72231
:1059E000E25403330732E25401332F3AE2540233D4
:1059F000403AE25430003A496D3A05F02FF8082257
:105A000029230221FF3220000096FEF7A7FD322055
:105A1000FCF7E0FF0123382200252000A3540132C7
:105A2000A5540132A5540132A5540132A3543C338C
:105A3000E55422320133E2540133E5540133E55495
:105A40009D320133E2540021C53A423005F000F89E
:105A500031004022584614F0FFF90B223000214952
:105A600004F0FCFF08224B230221FF3220000096A5
:105A7000FEF774FD3220FCF7ADFF00230222022165
:105A800020000095FEF76AFD3220FCF7A3FF0020FE
:105A900003B0F0BCBB46B246A946A046F0BD4427C1
:105AA000E05545202D0E255401302254013022545A
:105AB000EFE6C01A0C4B9C466044FCF7B3FF87E747
:105AC000A8A701107CA6011088A60110A0A60110AD
:105AD000B0A60110BCA6011000400540EF4902002D
